:020000040001F9
:10B00000D0340020D5B00100EFB00100F1B0010054
:10B010000000000000000000000000000000000030
:10B02000000000000000000000000000F3B001007C
:10B030000000000000000000F5B00100F7B00100C2
:10B040009DB40100F9B001001DB60100F9B0010086
:10B05000F9B0010000000000E1B20100F9B0010008
:10B06000F9B00100D9B50100F9B00100F9B0010053
:10B07000F9B00100F9B00100F9B00100F9B0010028
:10B08000F9B00100F1B40100F9B00100F9B001001C
:10B0900011B50100F9B0010019B50100F9B00100C6
:10B0A000F9B00100F9B0010000000000000000004C
:10B0B0000000000000000000000000000000000090
:10B0C0000348854600F0CEF80048004759EF0100DC
:10B0D000D03400200321094802680A43026008486E
:10B0E00002680A4302600748804707480047FEE7B6
:10B0F000FEE7FEE7FEE7FEE7FEE70000240500406E
:10B100005405004039B50100C1B0010030B50B460F
:10B11000014600202022012409E00D46D5409D4231
:10B1200005D31D469540491B2546954040191546B7
:10B13000521E002DF1DC30BD70B5002425460028DC
:10B1400001DA01244042002901DA01254942FFF7D2
:10B15000DDFFAC4200D04042002C00D0494270BD1F
:10B16000F0B51FB40646002082B005464024019188
:10B1700000901BE0019922460F46304600F061F82E
:10B18000049A059B801A994110D31046194622460D
:10B1900000F047F8361A8F4101972246012000211E
:10B1A000009F00F03EF838184D4100902046641E84
:10B1B0000028DFDC019B00982946324607B0F0BD2D
:10B1C00003460B439B0703D009E008C9121F08C0C0
:10B1D000042AFAD203E00B780370401C491C521E6B
:10B1E000F9D27047D2B201E00270401C491EFBD276
:10B1F00070470022F6E710B513460A460446194682
:10B20000FFF7F0FF204610BD30B50446002003468E
:10B2100000E05B1C934203D2E05CCD5C401BF8D0A5
:10B2200030BD10B5202A04DB0146203A91400020B1
:10B2300010BD914020239C1A0346E34019439040DF
:10B2400010BD10B5202A04DB0846203AD04000216A
:10B2500010BD0B46D340D0402024A21A9140084391
:10B26000194610BD064C0125064E05E0E36807CCE3
:10B270002B430C3C98471034B442F7D3FFF724FF1C
:10B28000AC300200CC30020070B58C180578401C40
:10B290006B075B0F01D10378401C2A1106D102789D
:10B2A000401C03E006780E70401C491C5B1EF9D15F
:10B2B0002B0705D40023521E0DD40B70491CFAE74E
:10B2C0000378401CCB1A921C03E01D780D70491CBA
:10B2D0005B1C521EF9D5A142D8D3002070BD0000DE
:10B2E000F0B50024FF268BB00136012527460694D1
:10B2F000304604F08FFD002807D0544840682842AB
:10B3000003D0304604F07EFD2C43361D6D007F1CBB
:10B31000B6B2042FECD3FF257D35284604F07AFD24
:10B32000002809D0284604F06DFD6807044306AAEA
:10B330000121002004F052FD454D200714D00127C3
:10B34000002627420CD04348B20011180869096949
:10B35000C004C00E8903AA58890F002A00D0904764
:10B360007F00761C042EECD3002C6DDA00200890B0
:10B37000401E63E0281940300778B906890E009115
:10B3800000214156491C49D009A9009804F01CF835
:10B39000002843D0B8090190009801F01FFF8000F9
:10B3A0002F580198002F02D0032802D00DE0032867
:10B3B00034D1009808ABC20841079446985C490F05
:10B3C00001228A40104362469854009805210907DB
:10B3D00080004018072109024018006806A9800370
:10B3E000800F0290009803F0EFFF0028029802D02F
:10B3F000022802D012E0032810D10198032808D1B6
:10B40000029802281ED00221009804F0C9FC761C84
:10B41000F6B2002F02D001990098B847641C042CA2
:10B42000A8D3002E10D06A460121002004F0D6FCDB
:10B4300006990098884207D006900898002634465E
:10B44000099097E70321DFE70BB0F0BD00630040F0
:10B45000A42A0020006500408307FF22DB0E9A40EB
:10B460008907090E994000280BDA0007000F0838F9
:10B47000830808489B001818C36993430B43C361B2
:10B480007047830804489B001B18186890430843C2
:10B490001860704700ED00E000E400E0F8B5FF2020
:10B4A000013003F099FF002401250E4E0E4F0028B5
:10B4B00007D00E4804600120B0607D70002001F0CC
:10B4C000CFFEFF20053003F087FF002808D0074893
:10B4D000001D04600220B060BD70012001F0C0FEBC
:10B4E000F8BD000000030040902A00200001004049
:10B4F00010B506490020086048608860C8600349AC
:10B5000040390860486007F0F9F910BD401101406A
:10B5100010B507F065F910BD10B506484068002861
:10B5200005D08047002801D000F0A4FA10BD03F038
:10B530008BF910BD6422002010B503F0F9F9002842
:10B5400005D01F491D484860C8131E4988611E4820
:10B55000018CC9B201290BD1828C120708D1028D4E
:10B560001206120F042A03D1828D1206120F0AD07E
:10B57000012921D1818C09071ED1018D0906090FEE
:10B580000A2904D007E0114A01219160F5E7828D74
:10B590001206120F05D00D290ED1808D0006000F66
:10B5A0000AD10B480168012904D00A4901600168E9
:10B5B0000129FCD1C021416110BD0000DFFF07C09F
:10B5C00000050040006C0040C00F00F00006004085
:10B5D00000EC064075930000F8B50E4C04270025DA
:10B5E000BE03A8003146A940FF3041302258002A4E
:10B5F0000BD003221202A21852680A4205D0002181
:10B600002150054A5168126890476D1CEDB2BD4249
:10B61000E7D3F8BD00900040082B002010B5024988
:10B62000024807F0C6F910BDEC2A002000200040B7
:10B6300030B47446641E2578641CAB4200D21D46AB
:10B64000635D5B00E31830BC184702E008C8121FB6
:10B6500008C1002AFAD170477047002001E001C1FB
:10B66000121F002AFBD17047202804DA01218140F3
:10B670000348014201D001207047002070470000BC
:10B68000FC06FFBC10B500280CD000290AD00278B7
:10B690000B789A4206D10622401C491CFFF7B4FDE4
:10B6A000002801D0002010BD012010BDF7B584B0E6
:10B6B000064600251788158020300290407B1446EE
:10B6C000002806D03A462146059801F0E1F9050028
:10B6D00009D1B078002823D0059886462088001D1F
:10B6E000B84202D90C2007B0F0BD684679DF0028C7
:10B6F000F9D1218803207246505420881921401C1A
:10B7000080B22080115420887146401C80B2208075
:10B7100041186846008807F0E0F921884018208029
:10B72000F078002817D0218803230A46F356C91C55
:10B730000598B942D6D80221815421880122491C9A
:10B7400089B2218042542188491C89B22180435406
:10B750002088401C20807068002817D02188002392
:10B76000C3560A46C91C0598B942BBD80221815468
:10B7700021880A22491C89B2218042542188491C0F
:10B7800089B2218043542088401C208030890028C1
:10B790000AD0009430460197062202210830059B0A
:10B7A00007F0F4F905009ED1308A00280AD00094F1
:10B7B00030460197072203211030059B07F0E6F978
:10B7C000050090D1308B00280AD0009430460197B4
:10B7D000152214211830059B07F0D8F9050082D1F5
:10B7E000306A002806D03B462246059901F0A0FDAC
:10B7F0000500D8D1706A002806D03B46224605993C
:10B8000003F088FC0500CED10298007B002807D009
:10B810003B4622463046059906F048FC0500C2D159
:10B820003078002807D03B4622463046059903F081
:10B8300033FD0500B7D1284655E70000174A00211F
:10B84000535C002B01D0012203E0491C0629F7D3E9
:10B8500000221349012806D002280BD0032810D05B
:10B86000042818D112E04878002803D0002A01D01B
:10B87000012070478878002803D0002A01D00220D8
:10B880007047C878002801D0032070470879002845
:10B8900001D004207047002070470000692100207B
:10B8A0004824002010B501220221002001F018FBDD
:10B8B000002801D0072812D107220221012001F01F
:10B8C0000FFB002801D0072809D100210A220846D1
:10B8D00001F006FB002801D0072800D1002010BD90
:10B8E000F0B50F468DB0002116466D460F24621A42
:10B8F000825C6A54491C1029F9D328460D21103066
:10B90000FFF777FC0020221A395C5219401C117491
:10B910000328F8D368464DDF0020211A4919203149
:10B9200009783154401C0328F7D30DB0F0BD000056
:10B9300070B590B005461C216846FFF75AFC694671
:10B940000878042108436946087000240194039490
:10B9500004940594012608A906948E70144869463B
:10B960000884601C00070794000F0C77203048778C
:10B97000887FF9210840F721801C0840EF2108400A
:10B98000B0436946887714210AA8FFF732FC08A95A
:10B990000C7107A80A910B9069460E864C868E861C
:10B9A00009A80E90A888AB1D0AAAA2DF10B070BD2E
:10B9B000062A000010B5022001F04AF910BD00006F
:10B9C00070B50024064D06E06968E000085C0121BE
:10B9D00003F096FD641C28788442F5D3002070BDE6
:10B9E00000220020F8B515460C460646052A01D26D
:10B9F0000720F8BD03F05CFE002803D103F02AFE07
:10BA00000028F6D1104900204E600C70C8608D608F
:10BA100008610E4D0DE0E0006968801900918178A1
:10BA20006A46517000780A4A694603F0B5FD00285D
:10BA3000DFD12046641EE4B20028ECD1054A002183
:10BA4000024800F071FAF8BD0022002084300200A4
:10BA50000DE20100CDD40100BFF34F8F044903482C
:10BA6000C860BFF34F8F00BFFDE700000400FA0578
:10BA700000ED00E00EB50021029000916A460191B0
:10BA80000148FFF7E9FF0EBD0140000070B5054613
:10BA900040680B4E0179715C0124FF290DD0FE290D
:10BAA0000CD004F047F801466868064B0079820024
:10BAB0009A58914202D1FF2131540024204670BD92
:10BAC0005A220020B82C002070B5044600680D46AC
:10BAD000008B642180B25043FFF718FB82B22946E5
:10BAE000204600F001F870BDF8B50D460446174633
:10BAF00000680C212E4623224E43125C3118022A84
:10BB000001D00820F8BD4968B94206D1C1690029B1
:10BB10003ED06068007988473AE02046FFF7B6FFDC
:10BB2000002801D01120F8BD61681A4A0979FE2069
:10BB3000505423683A469E19776820462946002FBC
:10BB400002D09E69B7420AD3002A02D09B69934271
:10BB500002D805F03FFC0BE005F076FC08E0002A77
:10BB600001D0964202D805F0F9FC01E005F07CFD19
:10BB70002068C06900280BD06168064A0979022054
:10BB80004900D21C891848550221606804F008F861
:10BB90000020F8BD5A220020FFB581B00646076894
:10BBA000029D0C2045432320C05DEC19002802D0E3
:10BBB000082005B0F0BD002060600498A0722C48F9
:10BBC00000680090284631680A30085C002808D0D8
:10BBD000002069464870039803F072FD002816D1D2
:10BBE00001E00120F5E703987851012703983D46CD
:10BBF000854004991F48002901D0C56000E0856098
:10BC000000256019083003F011FE002801D004203F
:10BC1000CFE76D1CEDB2022DF3D3207A03F05AFE6C
:10BC2000607A03F057FE206803F096FD05467068C1
:10BC3000029903F0A5FF237A01462A46184603F02D
:10BC400029FE206803F088FD05460221706803F094
:10BC500097FF0146607A2A4603F01CFEE77271687E
:10BC6000054A0979002049008A1802995054A0E732
:10BC7000A0300200000500505D220020F8B5064605
:10BC80000768406803F09EFF0221706803F07FFFA1
:10BC9000002438192030007803F01CFE641CE4B244
:10BCA000022CF6D3002420460C214843C519E97A1A
:10BCB000002912D031680A30085C00281AD029788F
:10BCC000012088400E49C860286803F04FFD287A9B
:10BCD00003F000FE687A03F0FDFD641CE4B2022C60
:10BCE000E1D370680021006804F088FA0120203751
:10BCF000F870F8BD28780121814001488160E3E7B0
:10BD000000050050F8B50768054600246A6820461B
:10BD100012790C2148435300174AC61900219A187A
:10BD20001155F17A00290DD029680A30085C0028E5
:10BD300020D00021306803F041FD306803F026FD7B
:10BD400000207060641C022CE0D369680A4AFF205E
:10BD50000979D21E505468680121006804F04EFA37
:10BD6000686803F0F4FE686803F038FF02202037AB
:10BD7000F870F8BD0121DDE75D220020F7B588B03D
:10BD80000E00054609D02C68204620300690C07869
:10BD9000002804D008200BB0F0BD0B20FBE703F017
:10BDA000BDFE002803D0852801D00420F3E703F06E
:10BDB0007FFC002805D103F04DFC002801D00320B2
:10BDC000E9E70698FF210170069841700698817096
:10BDD000002007460C2141430B19DF72FF221A7223
:10BDE0005A720022D243401CC0B262500228F1D3E2
:10BDF0002046223003F01EFE002806D10027E0195D
:10BE0000203003F013FD002803D0284605F060FA27
:10BE1000CBE77F1CFFB2022FF1D30027B8003258C6
:10BE2000501C12D0F019037A39462846FFF7B4FEA9
:10BE30000490002804D0284605F04AFA0498AAE79E
:10BE4000002239462846FFF74FFE7F1CFFB2022F23
:10BE5000E4D300200922244B316901E04908401C49
:10BE6000994201D99042F9D3204A516892680292CE
:10BE700001916946087168681D4A0079029001A91C
:10BE8000686803F0D1FE070004D0284605F020FAC8
:10BE9000384680E768680522006812028018316918
:10BEA00000690E01C640A661686803F050FE0127D4
:10BEB0000097042332460221686803F09DFE0221A8
:10BEC000686803F064FE0A98E061686809490079CF
:10BED000094A80000D506968FF200979505406987E
:10BEE000C770002057E70000FF0F0000A0300200DD
:10BEF00069130200C42C00205A22002070B5046887
:10BF000005462034E078022802D0002809D002E05B
:10BF10002846FFF7B3FE284605F0DAF90020E07066
:10BF200070BD082070BD0000094B5B68002B07D076
:10BF3000002A07D0002805D00068037C002B03D01E
:10BF40000820704707207047417442610020704705
:10BF500024220020FFB507469007002581B01E4629
:10BF60001446002825D1002C23D005F0E1FD3046F1
:10BF7000114EF060304610300570457002998170A6
:10BF800044607560357001240C48757024050460A8
:10BF900003211420FFF760FA09480460094CA760E8
:10BFA00003211120FFF758FA6068B060002005B047
:10BFB000F0BD0720FBE700001422002080E200E033
:10BFC00000E100E000150140FEB51F4B5B68002B4F
:10BFD00030D000282ED0052901D20720FEBD4369AC
:10BFE000002B27D0437C012B26D00027029104464A
:10BFF0000025694616460D70684600F03DF801A818
:10C0000006F0AEFD002819D0012101700F494460EF
:10C0100049688160029907614661C16068460A49C2
:10C02000007948706846007800F044F806F01AFC81
:10C030002846FEBD0820FEBD0F46D7E7684604250A
:10C04000007800F037F8F3E72422002000150140C3
:10C0500010B50849496800290AD0002808D041696C
:10C06000002905D000210174022106F023FC10BD37
:10C07000082010BD2422002030B5EFF3108172B6E5
:10C08000094A54680123002C04D00370002900D110
:10C0900062B630BD5360054B1D68054C25401560E8
:10C0A0001C6000220270F1E73822002080E100E0ED
:10C0B000FC06FFBC08494A68002A0CD000280AD1B7
:10C0C000EFF3108072B60A68044B1A6000224A60CF
:10C0D000002800D162B670473822002000E100E05D
:10C0E000800B01D00020704701207047F0B5044656
:10C0F0008BB0008800F068FC0590208802F012FBED
:10C100000646A0680090657A684605741E4F208830
:10C110000022397800F0A8FC0598002831D0607919
:10C12000400710D50721304604F046FA002813D006
:10C13000082269460A7422884A828E82069004A8E0
:10C1400001F0B4FA08E02088B97800F07BFC002800
:10C1500002D0304602F0D0FA0321684601712188EE
:10C16000C18060794007C10F68460172A07940071D
:10C17000C10F6846417201788172C57201A801F051
:10C1800095FA0BB0F0BD0000DC210020F0B50546AB
:10C19000007D002493B00E4600280DD001200146FA
:10C1A0006846103103940173717B4173817BF920E0
:10C1B00001406846891C81731C2104A8FFF719F807
:10C1C0006946087C02210843694608742A7DEF21EC
:10C1D000002A02D01022104300E008406A46107482
:10C1E000059407940894287D002800D003A809909E
:10C1F00001270A9410469771304A82800094B27BDE
:10C200000270F27B42708078F9221040F722801C85
:10C210001040EF2108404108490068468170317B99
:10C22000017214210BA8FEF7E4FF01A80B906846E9
:10C230000C908786C486078702A80F90A888AB1D3C
:10C240000BAA04A9A2DF002835D1B068002830D09D
:10C25000684687711A4981800094317C0170002002
:10C260000146684641708078F9210840F721801C1A
:10C270000840EF210840410849006846817011A834
:10C28000B16800F090FC064614210BA8FEF7B1FF40
:10C2900001A80B9068460C908686C486068711A874
:10C2A0000F902A46E8880E320BA9A3DF002802D19E
:10C2B00000E0EC81002013B0F0BD0000192A00005E
:10C2C0000829000010B50B490B4805F047FEC1B224
:10C2D0000848283800F0DEF9002809D0082807D0DF
:10C2E0000649884204D00649884201D0FFF7C2FBC4
:10C2F00010BD0000B4230020F41F00200430000013
:10C3000001340000F0B50C4693B01F216A4611803D
:10C31000072600279180002809D0C17849070DD54C
:10C3200002A9FFF7C3F9002809D102AD01E00025F9
:10C330001780002C0ED0E078002802D0304613B0D1
:10C34000F0BD01AA0AA92046FFF7B0F90028F6D1EE
:10C350000AAA02E068460022878068468088C3B245
:10C3600068460088C1B2284672DFE8E7FFB581B0B1
:10C370001E460A9F1346040047D0002B45D0504D5F
:10C38000012028700020E870202219464D48FEF751
:10C3900017FF00206F61C0432E61288128460721C6
:10C3A0001830FEF726FF47483C212030FEF721FFDA
:10C3B0004448217820300170A1788170E178C17003
:10C3C000617841703F4A656923695563114613637B
:10C3D0002031E368A268CB608A603A49E369A269C8
:10C3E000CB638A63616A00291AD001463C31024658
:10C3F000483241628A60636A1B880B80616A436AC3
:10C40000898899800021436A07E00E2005B0F0BDBD
:10C41000656AAD686D5C5554491C9D888D42F7D89E
:10C42000A16A00291CD0274A943211460C398A602F
:10C430008162A36A9B888B80A16A836A09881980BC
:10C440000021836A04E0A56AAD686D5C5554491CFF
:10C450009D888D42F7D82C210A5D1A4940310A7314
:10C46000216A002909D016490A310162226A5288DC
:10C470004A80216A026A098811806168002900D017
:10C480004160104A0E490020B3322031C3001B1A0C
:10C4900085009B180C68401C63510828F6DB094A8C
:10C4A0000020EB32030185009B188C68401C63510F
:10C4B0000828F7DB034802992030FFF723FFA5E7A0
:10C4C000502100204824002010B50188134C102969
:10C4D00015D0112919D01B2910D1007A00280DD1AF
:10C4E000E0780521401CFEF711FE084600F04EF8EA
:10C4F000002803D06169002900D0884710BD817DE4
:10C500000129FBD18088208110BD002161718088C4
:10C5100021898842F8D10120E8E70000502100205D
:10C5200010B5022801D003280ED1084C60780028ED
:10C530000AD000206070E07800F028F8002803D0CE
:10C540006169002900D0884710BD000050210020FB
:10C5500010B574DF0B4C012060710B490620C870C8
:10C5600000210948FFF7CEFE002809D1E07800F04D
:10C570000DF8002803D06169002900D08847002009
:10C5800010BD00005021002068240020F1B53F4C70
:10C5900088B0207800280AD00898E07006A801F03A
:10C5A00081FB06980125002804D065706AE0082008
:10C5B00009B0F0BD3548002707211830FEF719FEF5
:10C5C000334E7078002802D0E078012807D0B07888
:10C5D00000280CD0E078012801D0022807D1216979
:10C5E000002903D025710820884700E027710898AA
:10C5F000FFF724F9E0702169002909D0032801D050
:10C60000042805D13078002802D06079002811D0A4
:10C61000A77118216846FEF7ECFD6846077007729F
:10C62000E1781A480B001830FFF702F8052E080FC2
:10C63000191D2000A57107208847EAE7A570019021
:10C64000684605704782078213E00221A1700190BD
:10C6500068460570B18941823189018209E06846E6
:10C6600005F0A6FD02E0684605F0CEFDE078002862
:10C6700003D0684673DF00289AD12169002901D0D0
:10C68000A0788847002093E7A770F6E750210020A4
:10C690004824002073B586B004002FD06A46217C60
:10C6A000127F0020914227D0002501266846009580
:10C6B0000680458007A80190E188608A6A46A4DF69
:10C6C000002819D16846007F2074608A0D4988428D
:10C6D00016D0207D002813D002950395049505956A
:10C6E000E1886846018186724188818104900198C1
:10C6F0000590608A02A9A6DF08B070BD0E20FBE796
:10C700000820F9E7FFFF000038B50D4604001AD0F5
:10C71000002D18D0286820600020C043608228794E
:10C720002075FF202074012168468170074901802F
:10C73000221D69460120A0DF002803D1294620469A
:10C74000FFF724FD38BD0E2038BD00000F18000093
:10C7500038B5002824D0002922D00A88102A1AD0FF
:10C76000112A1AD0502A1BD10446007D002817D068
:10C77000C8886289891D904212D1488902280FD148
:10C78000206800280CD008460C3000F005FA00287C
:10C7900007D0002006E0898801E00021C9434182DA
:10C7A00038BD01206946087022682046904738BD90
:10C7B00070B5054601461C220E48FEF701FD0E4CE1
:10C7C000002626702968002906D00822201DFEF7C1
:10C7D000F7FC201D7ADF02E00748001D7BDF002800
:10C7E00007D1401E60806670044A00210448FFF7AC
:10C7F0009BFB70BD1426002080210020E52A02004A
:10C80000FC2F0200F8B5214C0146028800261E4884
:10C81000E589102A13D01E4F112A1FD0122A2BD0BF
:10C82000502A1AD1881DC988A94216D141890229E6
:10C8300013D10C3000F0B0F900280CD112E08A8836
:10C8400004464280104808220C301831FEF7B8FC2C
:10C850006670002D01D100F0B3FDF8BD0021C94381
:10C86000418046703868FFF7F3FB0028F5D0A169D6
:10C870000029F2D08847F8BD034808220C3008315F
:10C88000FEF79EFCE7E70000802100201426002030
:10C89000FC2F020010B503490A7D091D05F01DFAA1
:10C8A00010BD000030260020034B10B50246D97D94
:10C8B000181D05F0FFF910BD30260020034B10B500
:10C8C0000246197E181D05F0F5F910BD302600202E
:10C8D000F0B5044602883A488DB001461531019101
:10C8E000102A09D0112A50D01A2A4AD1217A0909CE
:10C8F00001294ED901234DE0027D417D05468A4341
:10C90000011D07A805F0E9F9142207A902A8FEF7FE
:10C9100057FC00262A483746143008900AE0710078
:10C9200002A8081883881D220097281D089905F081
:10C9300081F9761C0298B042F1D8287DA688C043C0
:10C94000C0B205F09BF91F49884217D0400040193A
:10C95000868001233246281D019905F0E1F9012363
:10C960003246281D089905F0DBF9A07D02280AD07F
:10C9700000231349A2881631281D1DE00420FFF76B
:10C9800079F80DB0F0BD0123F3E70023A288001D64
:10C9900012E000230A490546A2881731001D05F060
:10C9A000BFF9207A0009022801D9012300E0002301
:10C9B0000349A2881831281D05F0B2F9E1E700000B
:10C9C00030260020FFFF000070B50B4E0546002406
:10C9D000317D2A46301D05F06DF9002809D0B17D62
:10C9E0002A46301D05F066F9002801D0022400E037
:10C9F0000124204670BD00003026002010B5002420
:10CA0000204606F0A1F8002805D0641CE4B2182CDA
:10CA1000F6D3182010BD044801220168A24011433A
:10CA20000160204610BD00003026002010B50446ED
:10CA300006F08AF8002802D001480019407E10BD97
:10CA40003026002070B505460C46084606F07CF8F6
:10CA5000002806D003482A460119497E001D05F02A
:10CA600029F970BD3026002070B5064615460C46E3
:10CA7000084606F069F8002807D004482B4601193B
:10CA80003246001D193105F04BF970BD30260020EB
:10CA90007CB5054608880C460930904201D90C2027
:10CAA0007CBD684671DF0028FAD1218808206854CF
:10CAB00020881B21401C80B220802954208800A996
:10CAC000401C80B22080401906220131FEF778FB1D
:10CAD00020886946801D80B220800978002900D016
:10CAE000012129542088401C208000207CBD0000AA
:10CAF00010B50446FFF7ECFE204604F039FA214653
:10CB00000A48FFF725FE09482146183000F02AF8A8
:10CB10002046FFF777FE204600F026F9204603F076
:10CB2000A1F92046FFF7D0FC10BD00008C230020A7
:10CB300038B50446086800280FD0206001216846F7
:10CB4000817007490180221D69460120A0DF00286D
:10CB500002D12046FEF7ECFE38BD072038BD0000AC
:10CB60000218000008B50A88102A12D0502A0FD1E6
:10CB7000CA88C388891D9A420AD14A89012A07D1E5
:10CB800000236A461370097B51700268694690471A
:10CB900008BD8988C18108BD417802780802104328
:10CBA000C007C00F70470A780270497841700220B0
:10CBB0007047000000B5174887B0C0680590002393
:10CBC0004822154905A805F0C7FD002801D0FEF749
:10CBD00051FF6A460121002005F0A6FD002801D082
:10CBE000FEF748FF684605F095FD002801D0FEF7E6
:10CBF00041FF0A4805F084FD002801D0FEF73AFF06
:10CC0000074805F0DBFD002801D0FEF733FF07B031
:10CC100000BD0000AC2F020044230020F1CA010037
:10CC2000D12702000149085C70470000D82F02009C
:10CC30000549095C05480069C840C007C00F00D01D
:10CC40000120012148407047D82F02000005005004
:10CC500005490B5C05494A68012098400346934307
:10CC60008B601040C8607047DA2F0200000500504A
:10CC700010B50349085C012103F0A4F810BD0000C1
:10CC8000DA2F020010B50349085C002103F09AF87E
:10CC900010BD0000DA2F02000549095C0548406814
:10CCA000C840C007C00F00D0012001214840704794
:10CCB000DA2F0200000500507CB50024074E2546FF
:10CCC000305D0122009500231146019503F026F8FE
:10CCD000641C032CF4D300F003F87CBDDA2F0200AF
:10CCE00010B500242046FFF7C3FF641C032CF9D3C2
:10CCF00010BD10B500242046FFF7C4FF641C032CB0
:10CD0000F9D310BD0246002010B5C043054B0021E9
:10CD10005C5C944201D1084610BD491C0229F7D33E
:10CD200010BD0000D82F020070B50E4E00250C4635
:10CD3000306000290DD0012000F0ACF8002801D0AF
:10CD4000022005E0002000F0A5F8002800D00B200C
:10CD500020707068002802D1FEF7A4FD0546284621
:10CD600070BD00004821002010B51C4C018860688F
:10CD700010290DD011290AD1401E606007D1FEF79D
:10CD800091FD002803D02168002900D0884710BDFC
:10CD900000281ED100210122084600F0A1F8002839
:10CDA00001D0072811D107220221012000F098F8B4
:10CDB000002801D0072808D104220221002000F019
:10CDC0008FF8002805D0072803D02168002900D05B
:10CDD00088476068401C606010BD0000482100204A
:10CDE00010B5002000F0BAF9002801D0062807D1BC
:10CDF000012000F0B3F9002801D0062800D100205E
:10CE000010BD0000F3B581B00D460198FFF77AFF21
:10CE10000446022814D21E4F1C483E46143E002DE4
:10CE200027D0012D0DD0022D0AD160002018C01985
:10CE30004578002D04D03169002901D02846884763
:10CE4000FEBD610061187D5CCF19797800290BD097
:10CE5000B1680A2251430E4A8068123AFFF7B4F8CB
:10CE6000002801D10198B0700948B97811380155EE
:10CE7000DFE78068FFF7ECF80548610061181138BA
:10CE8000C919005D8D78A842D3D0FEBDE02F020005
:10CE90004021002010B5FFF7CBFE10BD10B50E4AA3
:10CEA000042806D007280DD00A2801D105F0D6F9AC
:10CEB00010BD1321908876DF0AE00028F8D0FEF735
:10CEC000D9FD10BD908805498842FAD1FFF740FB93
:10CED0000828F2D110BD0000E81F0020FFFF00006D
:10CEE00070B50023022811D2440004190D4D012A07
:10CEF00002D101290DD0002246008019094E801967
:10CF000000290CD0012906D0022906D00723184693
:10CF100070BD0E30C2B22A55F9E74270F7E7827051
:10CF2000F5E700004021002010B5054A0146127BBC
:10CF30000020D20702D0084600F050F810BD0000D3
:10CF40002C210020F8B506461F480024C660026167
:10CF500081600F46B00720D50025012211462846E2
:10CF6000FFF7BEFF6D1C0446022D02D2002CF4D048
:10CF700013E0002C11D17A0802211448FEF732FD8B
:10CF800004000AD1FEF71CFD040006D10F48104A28
:10CF90000021001FFEF7C8FF0446F00701D0FFF78D
:10CFA0008BFE002C0ED109480A4A00210C38FEF7EE
:10CFB000BBFF040006D10548074A01210838FEF7E7
:10CFC000B3FF04462046F8BD2C210020EC2F0200C0
:10CFD0006DD10100A9E90100B5B90100F8B55D4CBA
:10CFE000054660780026002803D000206070FFF717
:10CFF00077FE0120584F2B00FEF71AFB18970D0DF6
:10D000002E3D4A5F64686F686FA977777777779767
:10D010009A9DA0A9A9950020FFF73EFE00280AD0FE
:10D020000020FFF725FE022D02D1E120C0000BE019
:10D030007D20400108E00020FFF724FE022D01D1F1
:10D04000C82001E0FF20913025706421FEF75EF8D2
:10D05000A168414300222BE00020FFF71DFE0028BD
:10D0600005D00020FFF704FE19204001ECE7002066
:10D07000FFF708FEE4E70020FFF70EFE002803D0CC
:10D080000020FFF7F5FDD3E70020FFF7FBFDD9E710
:10D090000020FFF701FE002803D00020FFF7E8FD85
:10D0A00002E00020FFF7EEFD2570A068410000229D
:10D0B0003868FEF789FF064635E00020FFF7C8FD17
:10D0C000257007E000203FE025702CE06070012013
:10D0D000FFF7BEFD0022A168EAE760700120FFF7BC
:10D0E000B7FDA06881004118E1E77868FEF7B0FF5E
:10D0F00006461120401B01D0002E03D00220FFF76E
:10D10000B7FD10E001280BD9C82148436421FDF781
:10D11000FDFFA168002241437868FEF755FF0646EF
:10D120000220FFF7AFFD3046F8BDFFF7D9FDCBE792
:10D13000FFF7D6FDC6E7FFF7D3FD04E0FFF7D0FD0C
:10D140000020FFF79FFD0120FFF79CFDBCE7FFF7E4
:10D15000D0FDB9E72C210020E02F020010B5FFF729
:10D1600061FD032102F00BFE002010BD10B5007818
:10D170000221FFF747FE10BD0022D243830004497D
:10D180000428CA5002D308182030027770470000E4
:10D19000A42A0020F0B50025ED43002A02D0002388
:10D1A000042601E0042308260B4C04E09F00E75905
:10D1B0007F1C04D05B1CB342F8D32846F0BD261870
:10D1C0005DB2203635709E00A151002AF5D1E118DC
:10D1D00020310877F1E70000A42A0020024909184D
:10D1E0002020085670470000A42A0020002807D0FD
:10D1F0000449814204D80449814201D90120704781
:10D20000002070477C2200208C220020044A016804
:10D21000914201D0083101E001493839016070477D
:10D22000102C002070B50D4D04460A462846AC422D
:10D2300008D1FF2401342146104603F057FEA042D6
:10D240000AD070BDFF2CFCD82146104603F040FEEA
:10D25000002801D0204670BD284670BDFFFF0000A9
:10D2600070B5084C050009D010342168002907D09A
:10D2700008682060496828468847F6E70834F4E7DC
:10D2800070BD0000902A0020F8B5234841680029AD
:10D290003ED00E6821494C6887688078E11B0D02FA
:10D2A0002D0AED1C002814D101201D4A00045060F5
:10D2B0001B4A403A50601B49400008601A49086008
:10D2C0001A49012008602F2002F08EF8124901202F
:10D2D0008870B54200D23546E81900020F4B000AAB
:10D2E000403318600D4A5168001B091B0902090AE6
:10D2F0000002000AC91C814209D9506818602F2019
:10D3000002F072F801200749400480390860F8BD36
:10D3100004F00EFCF8BD00001422002000150140AE
:10D320004013014080E200E000E100E00010014015
:10D33000F8B50646108814468446801D0D4698426E
:10D3400001D90C20F8BD32880720062AFAD3192704
:10D35000FF01184BBA4201D99A42F3D171880629CC
:10D36000F0D3B94201D99942ECD19A4203D0994203
:10D3700001D08A42E6D8052160462954208812212E
:10D38000401C80B2208029542088401C80B220801C
:10D390004119308805F0A1FB2188401880B2208017
:10D3A0004119708805F099FB2188401820800020E1
:10D3B000F8BD0000FFFF000010B5FEF75BFB10BDDD
:10D3C000F8B5164801F0A6FA144D00260C3D144C91
:10D3D000002807D0616900291CD001206A4610701E
:10D3E000684616E02878002805D06169002911D028
:10D3F000684606700DE0687800280DD0A1680948DD
:10D4000000220068FEF7E0FD002803D0A169002992
:10D4100000D088472E70F8BD6168F0E78C210020AD
:10D4200014260020FC2F0200F0B585B00C46002821
:10D4300002D0012005B0F0BD207900270126002888
:10D4400006D01F4D012820D002282CD00F20F1E754
:10D4500002970397E0680190694601A804F092FAE8
:10D4600000280ED002988188E180008820810298EF
:10D4700004F002FB694609880A01124951188E73AB
:10D4800000E00A2002212171D4E70F4B6A460021F7
:10D49000A01D04F035FA002807D00B4908398F6029
:10D4A000CF600A28C6D12846C4E7019804F0E4FA00
:10D4B000054989880A01034951188E73F1E7000074
:10D4C0001D1D0000202C002048220020F8B5002659
:10D4D0000124154D23E06968F0004718387821468B
:10D4E0002A698140114218D08A432A6102F0A8F8C3
:10D4F0003A782146EB68914019400346934099429F
:10D500000BD17978012901D0012100E000217B684D
:10D510004140002B01D010469847761CF6B228787F
:10D520008642D8D3F8BD00000022002010B50E4975
:10D5300000230A784C78A24212D0521CD2B20A7050
:10D54000022A00D10B700A78074B920018339A58C0
:10D550000260886810180002000A8860012010BD6F
:10D560000360002010BD0000142200203EB5094DCC
:10D5700038CD0093029501946B46588099809A713A
:10D58000054900220978FFF76FFA684600F08EF827
:10D590003EBD000070300200DC21002010B5047890
:10D5A00000222300FEF744F8070605070D1D262C70
:10D5B00006000A7010BD01220A7002898A818288E1
:10D5C00014E002220A7002898A818288CA81C268B4
:10D5D0008A60007C062802D00020087410BD01205B
:10D5E000FBE703220A70C2888A810289CA81C06867
:10D5F000886010BD04230B70C0888881CA8110BD6B
:10D600000520087010BD000070B5064D06460024C8
:10D61000A0002958002901D030468847641C082CF6
:10D62000F6D370BD402B00200EB5002910D0112973
:10D630000ED00022009202926A46508001910D297C
:10D6400007D0862907D009201070104600F03CF85A
:10D650000EBD0B20F8E70A20F6E700000149096833
:10D66000084700009C21002070B5054D06460024A7
:10D67000A000295830468847641C022CF8D370BD9E
:10D6800018300200F8B507460024064E064D04E0A7
:10D69000A000315838468847641CE8788442F7DB9C
:10D6A000F8BD0000442A0020CC21002070B5054DB3
:10D6B00006460024A000295830468847641C022CE6
:10D6C000F8D370BD383002000149096808470000EE
:10D6D0007C3002007FB50446406800280BD0002053
:10D6E000039020780026414D0300FDF7A1FF066D51
:10D6F0000606304E7B6D0120F2E7A08900F0DCF9D0
:10D70000002804D1E08904F0CFF900285CD0A0897A
:10D7100000F0CCF9014668464180E08904F0BEF98A
:10D7200001466846017120780128606807D000280A
:10D7300009D00420694608706068039020E0002842
:10D74000F8D00320F6E70120F4E708463AE0A08984
:10D7500000F0B2F9002804D1E08904F0A5F900280E
:10D7600032D0A08900F0A2F969464880E08904F02F
:10D7700095F9694608716068002804D00520087092
:10D78000A0680290E1E70220F9E7A08900F094F98F
:10D79000002819D0E089002816D1A08900F086F968
:10D7A00069464880E08904F079F9FF2069460871EC
:10D7B000606800280FD0072008706E70AE7003F00C
:10D7C000D5F8684602F090FF6878002802D06E70A5
:10D7D00003F0CCF87FBD062168460170408803F055
:10D7E00053F9EAE7082069460870AEE7B82100203F
:10D7F00000B5104987B00978890702D4022007B024
:10D8000000BD0D49884201D10420F8E70522694690
:10D810000A7001220A71C88000221146684602F08F
:10D82000ADFB002803D004F04FF80020E7E7082004
:10D83000E5E7000040220020FFFF000000B50F4890
:10D8400087B00078800702D4022007B000BD062010
:10D850006946087000221146684602F08FFB0028D6
:10D8600009D007480178002901D00121017304F093
:10D870002BF80020E9E70820E7E70000402200201D
:10D88000402C002000B58DB014216846FDF7B1FC96
:10D890001E480078810703D56846FFF7B5FE32E0E1
:10D8A000C00730D1012000F02DF900F0A5F902F0F9
:10D8B000F7FB00280ED006280FD001216A4611750B
:10D8C0000300FDF7B5FE0C191119111918191819D3
:10D8D000131613190B200DB000BD022000F012F931
:10D8E000012000F0F5F8D7E7002000E003201076D3
:10D8F00002E00220FBE711760022114605A802F0A3
:10D900003DFB03F0E1FF0020E5E70000402200209E
:10D9100038B5040014D0694604F034F8002813D058
:10D92000684600880101094809188889002809D03B
:10D93000A27A002A06D0401E88810020A07238BD3D
:10D94000052038BD062038BD0A2038BD202C002017
:10D950001FB501A9684603F0D3FF04B010BD07B599
:10D9600013460A466946002003F0CAFF0EBD07B5FC
:10D9700013460A460021684603F0C2FF0EBD002888
:10D9800005D0002903D000680860002070470520FA
:10D990007047000038B50D46040017D0002D15D093
:10D9A000694603F0EFFF002812D0684600886168DE
:10D9B0000201084812189089401C90812960606813
:10D9C0000C3068600120A072002038BD052038BDF1
:10D9D0000A2038BD202C002010B5002804D00323D5
:10D9E000002205F0ADF910BD052010BD10B50223D1
:10D9F000002205F0A5F910BD10B5002A03D00223BE
:10DA000005F09EF910BD052010BD000010B5064AB6
:10DA10005178082906D08B00044C491CE050517005
:10DA2000002010BD0C2010BD40220020402B002003
:10DA300038B504460A480D460078800701D4022014
:10DA400038BD002C0AD06946284605F085FA002822
:10DA5000F6D1694609882180658038BD052038BD2A
:10DA60004022002010B504460E480078800701D4FB
:10DA7000022010BD002C10D0218802290FD80A4A9C
:10DA80000801801842896088121A032A07D405F019
:10DA900059FA00202080608010BD052010BD0420B0
:10DAA00010BD000040220020202C0020032189030B
:10DAB000401A80B27047000003218903401A0349CD
:10DAC000884201D80120704700207047FE3F0000C7
:10DAD00002490A7882430A70704700004022002001
:10DAE00010B504460078182802D1FEF787FF207091
:10DAF00010BD10B504460078182802D1FEF77EFF4D
:10DB0000207010BD02490A7802430A707047000075
:10DB10004022002070B5064600200546862906D022
:10DB2000112902D0002903D070BD012500E0012099
:10DB30000E4C002A02460FD061793046FEF794FF62
:10DB40002A4621793046FEF78FFF00226178304661
:10DB5000FEF78AFF002204E061783046FEF784FF7A
:10DB60002A4621783046FEF77FFF70BDE021002075
:10DB7000F8B506461C481F46007815460C46C007F7
:10DB80000AD03046FFF732FB002807D0002C07D020
:10DB9000A00507D00620F8BD0120F8BD0220F8BD81
:10DBA0000320F8BD3068A04204D8A80271680019AB
:10DBB000884201D90520F8BD002D10D0684603F039
:10DBC000D5FD00280DD000980221C0C00170A10130
:10DBD000090C8180058103F085FE0020F8BD04203A
:10DBE000F8BD0720F8BD00005822002010B50846F7
:10DBF00003F0D8FD10BD0000F0B52648264C001BF0
:10DC00000309264819464069421C03D10120000738
:10DC100040698002224A12789646D2070CD0002032
:10DC2000F0BD1D4C15012C192568002D03D064682A
:10DC3000002C00D0491E521C9A42F2D3002420E04E
:10DC4000E2B2002594462A460FE0134E1701BE1992
:10DC50003768002F02D07768002F05D1767BAE425F
:10DC600002D93546D6B2B446521C9A42EDD362462A
:10DC70001501094AAA185060157BAD02401B641CAF
:10DC800010608C42DCD306487146012211430170BA
:10DC9000C5E700008C2200207C220020001000102C
:10DCA00058220020002804D00349496E016000205A
:10DCB0007047032070470000502C0020F8B507463D
:10DCC0001E481E46007815460C46C0070ED0384642
:10DCD000FFF78CFA00280BD0002D0BD0002C09D0B8
:10DCE00028462043800707D00620F8BD0120F8BD54
:10DCF0000220F8BD0320F8BD3868A04204D8B10066
:10DD000078680919884201D20520F8BD002E11D08B
:10DD1000684603F02BFD00280ED000980699076096
:10DD2000416001210172C5600461868203F0DAFD61
:10DD30000020F8BD0420F8BD0720F8BD58220020BF
:10DD400070B5174B0446186E182148431549C01882
:10DD50000A78950715D5022C02D0032C1CD102E0BD
:10DD600002F0E2F818E04A78521CD2B24A70032A54
:10DD700012D900224A70082104F0A4F803F0E0FC54
:10DD80000AE0500708D5FB2002400A70586E0028B0
:10DD900002D0022002430A7003F060FD70BD000053
:10DDA000502C00205822002070B5002801D00120FE
:10DDB00070BD164C0025207B002801D0257301E0A2
:10DDC00000F09CF820780300FDF732FC081E0508DF
:10DDD0000B0E1E111A1E00F01BF870BD00F07EF82D
:10DDE00070BD00F061F870BD00F038F870BD60885B
:10DDF0000649000120394018406802F031F970BD31
:10DE0000656002F03BF970BD0F2070BD402C002012
:10DE100070B5104900208A1C0D460346203D0C18A1
:10DE2000A67A002E08D0A37204016419A689002ED8
:10DE300002D1A47B012C08D0401C80B20228EED372
:10DE40000B704B8004484B6070BD108000F046F8AA
:10DE500070BD0000402C00201D1D000010B50F4CAF
:10DE600060880101204620380818818900290BD0DC
:10DE7000052020700A4802218180016800230122C8
:10DE80000848FFF775FE10BD4168002301220548D0
:10DE9000FFF76EFE0421217010BD0000402C002011
:10DEA000502200207C22002038B50A4908480B681F
:10DEB0008988426889005918538803240470002017
:10DEC000DB1C00909BB20448FFF7F8FE38BD000051
:10DED000402C0020502200207C22002010B5064952
:10DEE0004888091D03F09EFD002802D0FFF7DCFFE3
:10DEF00010BDFFF7B3FF10BD402C0020F0B51D484A
:10DF00001D4907780246012502268C88203A3B00ED
:10DF1000FDF78EFB080517171A212C2C16170189FF
:10DF2000491C01810021418001730B01D35C002B4E
:10DF300008D000234418491C89B2A3720229F4D3E3
:10DF40000570F0BD0123F5E742685288D21CA21883
:10DF50008A800670F0BD45880B682D01AA185568A7
:10DF60000D60536014818E80062100E0072101704E
:10DF7000F0BD0000402C002050220020F0B50446E7
:10DF80000088384D8DB050281DD0522802D054281A
:10DF900026D103E0A08800F04DFF21E0062069466D
:10DFA0000870A08800F0BEFB69464880A2888A807D
:10DFB00000F054F9A0880022E978FEF755FD684684
:10DFC000FFF74CFB0CE0207B012809D1A07A012847
:10DFD00006D120892449884202D1A08800F066FF3A
:10DFE000A878FEF723FD002819D008A8FEF752FCF8
:10DFF000142208A903A8FDF7E3F8002403AE0BE000
:10E0000060008719B888A978FEF71CFD002802D0A7
:10E01000B88800F00FFF641C0398A042F0D868781D
:10E02000FEF704FD002819D008A8FEF733FC1422DF
:10E0300008A903A8FDF7C4F8002403AE0BE06000B4
:10E040008719B8886978FEF7FDFC002802D0B888E7
:10E0500000F02CFF641C0398A042F0D803F08CFF62
:10E060000DB0F0BD94210020022900003EB5044609
:10E070004088694648802078002814D001281DD0A7
:10E0800002280FD1207900280CD0608800F07EFA99
:10E090000E49884206D00E490122C978FEF7E4FCF9
:10E0A00003F06AFF3EBD002008700846FFF7D6FA6D
:10E0B000608800F06BFA00F0BDFE3EBD01216846AD
:10E0C0000170A1888180FFF7C9FA3EBDFFFF000003
:10E0D0009421002010B50446007801280DD16088F5
:10E0E00000F0A8FE608800F07DF9002805D0034903
:10E0F00060880122C978FEF7B7FC10BD942100208A
:10E1000010B5104C00202070FEF778FC6070FEF710
:10E1100075FCA070FEF772FCE070FEF76FFC2071DA
:10E12000617818290BD0A178182908D0E17818292E
:10E1300005D0182803D001202070002010BD032036
:10E1400010BD000094210020F0B585B000F09EF8CD
:10E150006846FEF79FFB00246D460C4F0EE0600002
:10E160004619B08800F0DEFAB84205D10849B088F7
:10E170000122C978FEF778FC641CA4B20098A04282
:10E18000EDD803F0F9FE05B0F0BD0000FFFF000080
:10E190009421002010B50178072902D1408800F0B1
:10E1A00085FE10BD10B504460A4841782046FEF7AA
:10E1B00049FC00280CD0084800210C224A431218C0
:10E1C0005288A24201D1C8B210BD491C0829F4D31B
:10E1D000FF2010BDAC2100206426002070B5094D41
:10E1E000094E00240C206043401940887178FEF7E6
:10E1F00029FC002804D0641C082CF3D3FF2070BD38
:10E20000E0B270BD64260020AC210020F8B50746BE
:10E21000104E0125BD403068FDF71AFF00280DD1D2
:10E220000D4C2069284207D1384601F009FA002830
:10E23000E06804D0284303E0A8432061F8BDA84368
:10E24000E0602069002228432061A1683068FDF762
:10E25000BBFEF8BD84300200002200201CB5054A38
:10E260009168D268019200910022694602F004F997
:10E270001CBD00000430020003480021C943818016
:10E280000121017000207047A021002010B5044832
:10E2900002F026F80349888003F09AFE10BD0000C2
:10E2A000FFFF0000A0210020F1B582B0029800F02D
:10E2B00039FA00241649032501272646884209D049
:10E2C0006A46082102F0AEF8002803D1019886883A
:10E2D0000568841D2B46324621460298A9DF042892
:10E2E00004D0082804D00B2807D002E0112000E059
:10E2F0000020002F00D10B20FEBD0027A80701D56C
:10E300000125E7E73443F6D0002426460325E1E75C
:10E31000FFFF0000F1B582B0029800F003FA074653
:10E320001B48874201D11B48FEBD01252A466D1CB2
:10E330000026ADB26B460821384602F0A3F804006F
:10E3400002D0072C21D021E0019903230B600A1D84
:10E35000891D0298AADF040004D00C2C08D0052CDB
:10E3600008D008E00821384602F026F904460DE0FE
:10E37000012600E000240821384602F007F90028B1
:10E3800000D00324002ED1D100E00C242046FEBD95
:10E39000FFFF0000023000001FB50446007801288E
:10E3A00013D12079012810D1608802AA012102F03E
:10E3B00039F8002809D1022168460170618841803E
:10E3C0000121017105490968884704480449083852
:10E3D0008088884201D003F0FBFD1FBDA8210020EA
:10E3E000FFFF00001CB500F09DF96A46012102F014
:10E3F00019F8002801D000201CBD019800781CBD30
:10E40000F8B5074E074C084D074632466188384636
:10E41000A7DFA84203D16088401C6080F5E7F8BD03
:10E42000FFFF0000A0210020033000008188054A82
:10E43000914204D00088002801D0012070470020BC
:10E4400070470000FFFF000008B508786A461070AA
:10E4500048785070002807D0192148436421081AD1
:10E460000249087000F08AFE08BD0000E81F002085
:10E4700010B500F083FE10BD3EB5044600780D4691
:10E48000022815D10322611C6846FCF799FE03227D
:10E49000211D02A8FCF794FE01AA02A92846FDF757
:10E4A0001FFA032201A96846FCF7AEFE002801D03E
:10E4B00000203EBD01203EBD10B50C46FFF772FEA8
:10E4C000FF280AD00C21484305490722411820465D
:10E4D000091DFCF775FE002010BD052010BD0000D1
:10E4E0006426002070B5018890B0102949D1011D23
:10E4F0002C2202A8FCF764FE6846234E007B3446BB
:10E5000002AD03282AD002F05FF96846007B00289C
:10E510000ED001280CD0022820D118E00E99281D19
:10E520001131FDF7AFF8002802D06846048815E0E5
:10E530000DAA6946072002F01DF90028EED10DE072
:10E540000E99281D491CFFF797FF0028EDD10DAA51
:10E550006946072002F00EF90028F1D168460089CB
:10E56000291D00F0E9FEB4420BD06846008921461F
:10E5700000F086F868460189418001210170FFF7AB
:10E5800073F810B070BD0000FFFF0000084A0021C2
:10E590000C234B43D35A834204D10C2041438818A7
:10E5A00040887047491C0829F2D302487047000090
:10E5B00064260020FFFF000010B50E4C182060708C
:10E5C0000D4A0E4900200C2343435B18401C5A801F
:10E5D0000828F8D3FEF712FA6070182804D005480E
:10E5E000C01C71DF002801D0032010BD0120207065
:10E5F000002010BDAC210020FFFF00006426002099
:10E6000070B504460D46401C00F0BCF9002810D03F
:10E610001022691C601CFCF7F7FD00280AD00026B8
:10E620002946204611311130FDF72CF801463046BD
:10E63000084370BD0126F3E70188002903D1421881
:10E640009278002A01D001207047491C0829F6D38E
:10E650000020704710B50C460346FFF7EDFF002879
:10E660000BD018882188884206D10822A11C981C4A
:10E67000FCF7CAFD002801D0002010BD012010BD0C
:10E6800010B502F05DFA10BD10B50446007888B0F0
:10E69000002826D12079072823D1608801AA0721E4
:10E6A00001F0C0FE00281CD102F08EF81BE0694684
:10E6B00060880988884216D004990298FFF7A0FF65
:10E6C000002810D06088FFF761FF01466846C182CC
:10E6D00000210175618801830188418305A8FEF747
:10E6E000C3FF08B010BD03AA6946072002F042F834
:10E6F0000028DCD1F5E7000070B50446FFF746FFBF
:10E700000546204601F093FE054904468D4204D09B
:10E71000002C02D1284602F013FA204670BD0000FA
:10E72000FFFF000010B5FFF73DFDFF2804D00C21CE
:10E7300048430249085A10BD014810BD6426002014
:10E74000FFFF00003EB5044602F03EF810E00199DC
:10E7500020464631FFF77EFF002806D1019920466A
:10E760002A31FFF777FF002802D0684600893EBDB6
:10E770006A4602A9072001F0FDFF0028E7D1014801
:10E780003EBD0000FFFF0000F8B50F46002804D092
:10E790000120FFF79DF90120F8BD397900290AD041
:10E7A0000026254D01290BD0244C022920681FD0BA
:10E7B00003293BD125E001F061FC0121397133E0EF
:10E7C00000200101695C02290BD0401C80B20228A4
:10E7D000F7D30220FFF796F90120FFF779F91848DF
:10E7E000F8BD04016019406801F03AFC2E551BE0A9
:10E7F0000146002301221348FFF7BAF90221A18044
:10E8000011E001F02DFC0C492368203149880A01F0
:10E81000094951184D6825604B60A3880B8102217E
:10E82000A18005498E543E710028D9D00120FFF700
:10E830004FF90E20F8BD0000202C002050220020AF
:10E840001D1D00007C220020F8B51E4C20780028F9
:10E8500036D0E068002600280CD00025607800281B
:10E860002ED1684652DF052806D0002806D0FDF7D5
:10E8700001F90BE00125F1E7012607E0009800F01F
:10E8800009FE2169002901D000988847002D13D185
:10E890006078002814D1608869460880A06861DF2C
:10E8A000052804D0002804D0FDF7E4F804E0012591
:10E8B00002E0E168A0688847002ECFD0002DE5D0A7
:10E8C000F8BD000064220020012181400348406817
:10E8D000014201D00120704700207047F82100203C
:10E8E0000121814003484078014201D00120704756
:10E8F00000207047F8210020014610B50120884013
:10E90000FDF7EEFB10BD01218140880700D00120FA
:10E9100070470000418805480288914204D340882E
:10E92000814201D8012070470020704784210020D7
:10E930001048018CC9B2012917D1818C090714D163
:10E94000018D09060A0F03D1828D1206120F0ED017
:10E95000090F012903D1828D1206120F07D0032956
:10E9600003D1808D0006000F01D0002070470120E8
:10E9700070470000C00F00F001218140880400D0E2
:10E98000012070470021425C002A01D0012070471D
:10E99000491C1029F7D300207047800701D00020C0
:10E9A000704701207047000010B50448017BC9077B
:10E9B00002D00078FEF712FB10BD00002C210020D1
:10E9C000FFB5244D81B0287A1F460E46084304D077
:10E9D000039A002E04D0002104E0052005B0F0BD0C
:10E9E0001C491031019803F08DFD044601460022B8
:10E9F0000198FFF78FF8002F03D021460198FEF70A
:10EA000013FE112C0FD006DC002C0AD0082C08D0E5
:10EA10000D2C05D105E0862C11D00F48C44200D042
:10EA200003242046DAE73246E9780198FEF71CF81D
:10EA3000A978039A0198FEF717F80024F1E7324607
:10EA4000E9780198FEF710F8A978039A0198FEF783
:10EA50000BF8E6E7E0210020FECFFFFFFEB51746EA
:10EA60000C00064604D02078C00704D0012003E043
:10EA700000217EDFFEBD0220694608713046FFF7A7
:10EA800051FE17490546884208D001A800902B4640
:10EA90003A462146304600F025F806E02078214627
:10EAA000C007304603D000F081F804460BE07EDF5B
:10EAB000044600200090002C08D0002201232946A3
:10EAC000304603F0CBF9002C02D006E00122F5E736
:10EAD00068460179304603F0E7F92046FEBD0000A4
:10EAE000FFFF0000FFB585B000252E4601AA0721D3
:10EAF0000E9F089801F096FC040008D1029D442066
:10EB0000405D1835C607F60F01D0029D34350798D1
:10EB1000204312D1002D10D0002E05D128461230EE
:10EB2000FFF78AFD002808D029462A4612310598A9
:10EB300085DF04460020387023E0002C01D0052C2E
:10EB40001FD106980078C0070DD003AB0122072122
:10EB5000089801F097FC04000AD10721089801F0F9
:10EB60008FFD040004D1069905987EDF040008D0CB
:10EB70000721089801F00AFD002802D0052800D0DE
:10EB80000324002000903878002801D0012300E001
:10EB90000023002C07D000220899059803F05EF9A5
:10EBA000204609B0F0BD0122F6E70000FEB50F4691
:10EBB000064601F033FC05461848854220D001ABDB
:10EBC00001220721284601F05DFC04000AD107213B
:10EBD000284601F055FD040004D1394630467EDF59
:10EBE000040008D00721284601F0D0FC002802D0FC
:10EBF000052800D0032401200090002C0BD002E057
:10EC0000032400200090002201232946304603F00F
:10EC100025F92046FEBD0122F6E70000FFFF0000B7
:10EC2000F7B5114D0F46164629780098FDF70AFFF3
:10EC3000002812D00098FFF775FD04460B48844267
:10EC40000BD069780098FDF7FDFE002806D033460A
:10EC50003A462146009801F09BFAFEBD32463946FD
:10EC60000098FEF783FCFEBDDC210020FFFF0000C2
:10EC7000F1B586B00698FDF7D9FE002821D0684688
:10EC8000FDF708FE00246E4618E060008519A8888C
:10EC90000699FDF7D7FE00280FD00B4FA888B9784A
:10ECA000FDF7D0FE0590A888F978FDF7CBFE014668
:10ECB000A8880123059AFFF783FE641C0098A042F0
:10ECC000E3D807B0F0BD0000E0210020F0B5284CEB
:10ECD0002146103948688B68227886469C46CF7852
:10ECE000667836E0182353436168521CC918A3782C
:10ECF000D2B2934200D100220B78022B02D0032B18
:10ED000027D123E003464D68194603E0A94204D009
:10ED10000B46C96900291CD0F8E7002919D08B429D
:10ED200008D1C069002805D1124F0125BD6000251A
:10ED3000AC4601270D68C969D961002909D00B6863
:10ED40005B190B6005E00174C06900E00021002838
:10ED5000F9D19642C6D10649624610398A604860A8
:10ED6000CF70704501D00120F0BD0020F0BD000043
:10ED70002422002000100140F8B52C4E0446706893
:10ED80000025009041E0002C02D02046E46920E0FC
:10ED9000264818231030017842684B43491CC9B2F9
:10EDA000D21801708378994200D1057011785068AB
:10EDB00001292CD1017C002929D191684160D168B9
:10EDC00081601169C16051698161F178002900D0C9
:10EDD00045604368B268164F991A0902090AB94298
:10EDE00002D28268891806E0D11A09028268090AEB
:10EDF0008A4202D9511A016000E005604560012194
:10EE000085600174C56103F035FD002CBBD1074856
:10EE10001030017840788142BAD1716800988142FF
:10EE200001D00120F8BD0020F8BD00001422002010
:10EE3000FFFF7F00FEB504461948002684422DD00E
:10EE40002046FFF731FA050012D00B2D14D0112DFA
:10EE500010D01448C5421BD00921684601702046D5
:10EE6000FFF760FC014668464180848002950DE012
:10EE7000022102E001260BE00321684601702046D2
:10EE8000FFF750FC0146684641808480FEF7E6FBB0
:10EE90000548324681782046FDF7E6FDFEBD0000BC
:10EEA000FFFF0000FECFFFFF94210020FEB50446C7
:10EEB0000026FFF72FFA0546112818D004DC002D94
:10EEC00013D00C2D05D114E0862D25D01348C54252
:10EED0001BD00921684601702046FFF723FC01463C
:10EEE00068464180848002950DE0012102E0012600
:10EEF0000BE007216846017084802046FFF712FC72
:10EF0000014668464180FEF7A9FB05483246417834
:10EF10002046FDF7A9FDFEBD0821EBE7FECFFFFF70
:10EF200094210020F8B5054600780C4600262042C2
:10EF30000FD10020694608706846FDF79DF82878D3
:10EF4000204202D120432870012668460078FDF750
:10EF5000B1F83046F8BD0000002398B05F4A0521A3
:10EF60001846FCF7F7FF002801D0FCF783FD5C4A48
:10EF700001215C48FCF7D8FF002801D0FCF77AFD9E
:10EF80005848594A0021001DFCF7CEFF002801D047
:10EF9000FCF770FD554A56490320FDF7D3FF0028C2
:10EFA00001D0FCF767FD69460020FDF7BDFE002893
:10EFB00001D0FCF75FFD6846007802287ED0002172
:10EFC00068460171FDF7F6FD6846007901F0CCFD59
:10EFD000012001461031684601730C2245A103A8A7
:10EFE0007CDF002801D0FCF745FD0024009450216F
:10EFF000684601940180A0214180FF2184809131E5
:10F00000C1807ADF002801D0FCF734FD3C2101A843
:10F01000FCF7EFF802216846017101258571062190
:10F02000C171858237480690202110A8FCF7E1F8CD
:10F0300010A8C57019204001009414901594324B0B
:10F0400010AA002101A8FDF791F9002801D0FCF7D2
:10F0500011FD03F073F821485121E830016064216B
:10F0600085604160057301462648801D02F06AFFF5
:10F070001C216846FCF7BDF80520C00301900F2055
:10F08000000402900094032168460173C481047453
:10F090001E4805901E4806906846FDF789FB00282B
:10F0A00001D0FCF7E7FC0F480121001F00220904F2
:10F0B0004068FCF789FF002803D000E005E0FCF77A
:10F0C000D9FC0320FDF762FA02E0012178E748DF6E
:10F0D0000028FCD0FCF7CEFCF9E70000CC22002091
:10F0E000C5C20100B02F020071E401009DCE0100F5
:10F0F000CD0C000046696E64696E67204B657973BC
:10F1000000000000EE1F002043FE010009FF010087
:10F11000B9D3010070B5144682880E460546208892
:10F12000111D4118921C994201D8FE2A01D90C20C8
:10F1300070BD521C32542088FF21401C80B22080B8
:10F1400031542088401C80B220808119288803F027
:10F15000C4FC2188401880B22080AA88002A09D0E7
:10F16000A968002908D08019FCF72AF82088A98806
:10F1700040182080002070BD072070BDF0B5424CC3
:10F1800000266078012585B026284FD0A178002977
:10F1900052D08100204614304758002F49D0142205
:10F1A0003A496846FCF70CF839463948FBF7AEFF98
:10F1B0000490684605723548364A69460838FCF7B7
:10F1C000DDFD002801D0FCF755FC30480838FCF77D
:10F1D00099FD2E48227800210838FCF775FC11288B
:10F1E000F7D060787D2581002748ED00AC3041588C
:10F1F0002846FBF7A1FFC117420CC903C0036B10DF
:10F200001143C018002251412A460023FBF7A8FFF2
:10F2100001461E48002218388068FCF7D5FE0028F9
:10F2200001D0FCF727FCA67005B0F0BD6670A57094
:10F23000FAE702F0C5F8D4E702F0C2F8607881007E
:10F240001148AC3041586420FBF776FFC117420CDF
:10F25000C903FF231143C003F5330022C0185141F5
:10F260005A000023FBF77CFF0146084800221838AB
:10F270008068FCF7A9FE002801D0FCF7FBFBA57015
:10F280006078401C6070CFE7E81F0020C42F0200A8
:10F2900040420F0065130200F8B50F46017814468E
:10F2A0000546012902D16878002806D02088821CF2
:10F2B0009A422DD8012902D006E00720F8BD6978CE
:10F2C0004118891C994223D8181A801E86B26846B4
:10F2D00006802188B81C081869467DDF0028EDD11A
:10F2E0002878022805D169460988B14201D8092148
:10F2F0000AE00821012805D16878B04202D86A46A0
:10F30000108001E06846068068460088FE2801D922
:10F310000C20F8BD2288401CB8542088401C80B2C4
:10F320002080395420886946401C20800988401874
:10F3300020800020F8BD0000F8B5FF240F460546E8
:10F3400000291FD0104EB5421CD010480122417830
:10F350002846FDF789FB2846FEF724FF0446FF28D0
:10F3600004D1FEF73BFF0446FF280BD00C21484395
:10F3700007490246401845808E5207223946001D33
:10F38000FBF71EFF2046F8BDFFFF0000AC21002068
:10F390006426002070B50B4D0E46A84201D1002016
:10F3A00000E0401C84B209E02146304601F0B8FD7F
:10F3B000002801D0204670BD641CA4B2FF2CF3D9F4
:10F3C000284670BDFFFF0000C20843075B0F012005
:10F3D000895C9840084070470121890740180068FF
:10F3E000002800D00120704700280FD00849094AA2
:10F3F000096800BF00BF00BF00BF00BF00BF00BF63
:10F4000000BF914200D000BF401EF2D17047000003
:10F41000782200200024F40070B50E4C00252078DE
:10F42000002801D0852513E00021A16061602161E1
:10F43000E160094800680126304002D1032100F054
:10F440002FF803F0B5F9002801D104488661267031
:10F45000284670BD902A002000E100E00005004031
:10F4600038B50020694608706846FCF705FE084C70
:10F470002078002801D1FFF7CFFFE068401CE06052
:10F480000120A07068460078FCF714FE38BD00002B
:10F49000902A002010B5002801D1FDF7E1FE10BD33
:10F4A0008207D30EFF229A408907090E10B59940B2
:10F4B00000280BDA03071B0F083B9C080C4BA40029
:10F4C000E318DC6994430C43DC6107E08408094BD2
:10F4D000A400E418236893430B432360C106C90EBC
:10F4E00001208840044908600449086010BD0000FC
:10F4F00000ED00E000E400E080E200E000E100E078
:10F50000F3B581B0054601F06BFB1F4F002828467C
:10F5100017D0FDF763FEC0192030007F8009032853
:10F5200002D001280BD005E018480069E840C00768
:10F53000C00F04D00321284600F032FCFEBD02219A
:10F54000F9E701F059FB0028F8D02846FDF746FE00
:10F5500004468000C11D0E4AF9318018026989B243
:10F56000012632430261084600F04CFC0298002854
:10F57000E4D02846FDF732FE800038580028DDD060
:10F580000448A6404660FEBDA42A002000050050A5
:10F590000065004000630040FEB5044625480E4665
:10F5A0000019202141560027C8171346401C01D0DE
:10F5B00008273CE0F27819462046FDF7EBFD0546AA
:10F5C000401C33D0B07800280BD005200007A100E4
:10F5D00009180720000209180868022290430860F1
:10F5E00007E000217378204600910A46019100F05F
:10F5F000A9FBF078002810D00F48AA001018317825
:10F6000002690E4B1A400261E206D20C8907890B8F
:10F610000A4301690A43026109E006483278401949
:10F620002030017F92011143017700E00427384622
:10F63000FEBD0000A42A002000650040FFE0FCFFA2
:10F6400003490969C140C807C00F00D001207047B5
:10F650000005005070B5144D2879002801D008200D
:10F6600070BD114900204039421E0B182033401C48
:10F67000C0B21A702028F8D300242046FDF77CFD84
:10F68000641CE4B2082CF8D303210620FFF708FF1E
:10F69000FF207D3000F0B6FB01200449C007486020
:10F6A00001202871002070BDE42A00200063004082
:10F6B00002480079002800D001207047E42A002089
:10F6C000FEB5044620480D4600190026203081571B
:10F6D000491C01D0082633E0A97800291DD0012259
:10F6E00000212046FDF756FD411C14D08300174829
:10F6F0002A78181869780369154F3B40036103693C
:10F70000E706FF0C9207920BC907C90A3B430A435D
:10F710001343036104E0042612E00121C943017090
:10F720006A780120A0400B49012A0BD0C860002153
:10F7300000910B46012201912046114600F002FB88
:10F740003046FEBD8860F2E7A42A00200065004034
:10F75000FFE0ECFF0005005010B5FDF73FFD80060F
:10F760000149000E401810BD00600040054909180D
:10F77000202008568100044808180169890889007A
:10F7800001617047A42A002000650040094909185A
:10F7900020200856810008480918086903221043F0
:10F7A0001F22120202430A6100BF00BF00BF0861AE
:10F7B00070470000A42A002000650040002900D006
:10F7C0000121074A121820201056820005481218FD
:10F7D000106901231B059843090508431061704710
:10F7E000A42A00200065004010B5044601F004FA88
:10F7F00000280DD02046FDF7F1FCC0B2FDF7BCFC9F
:10F800002046FDF7EBFC074A0021800080180161CB
:10F81000054800210019C94320300170204600F03E
:10F82000A5FA10BD00650040A42A0020F1B5042708
:10F83000164E82B000240020694608706846FCF726
:10F840001BFC0125A540354204D02046FFF73CF8BB
:10F8500000280CD068460078FCF72CFC002F04D060
:10F86000641CAE43E4B2002EE5D13846FEBD084923
:10F8700001204A68A04010434860029800270470A5
:10F8800068460078FCF716FCEFE70000FF3F000039
:10F89000F8210020F8B514460D00074612D0002CC0
:10F8A00010D00026FFF768F800280DD03846FFF783
:10F8B0000BF800280AD00648F900081805614461D1
:10F8C0003046F8BD0E20F8BD0726F9E70826F7E711
:10F8D00000F5014070B505460024FFF70DF800283B
:10F8E0000FD02846FFF748F8002804D02846FEF736
:10F8F000EBFF002807D001200449A840886020467B
:10F9000070BD0724FBE70824F9E7000000F501407B
:10F9100070B505460024FEF7EFFF00280FD02846FB
:10F92000FFF72AF8002804D02846FEF7CDFF00286C
:10F9300007D001200449A8404860204670BD072434
:10F94000FBE70824F9E7000000F50140F8B504469C
:10F950000026FFF711F8002812D001250948A5401C
:10F960008560002168460170FCF786FB0648416807
:10F97000A943416068460078FCF79CFB3046F8BD1F
:10F980000726FBE700F50140F8210020F8B5064600
:10F990000D4600240846FEF7B6FF00281CD0284676
:10F9A000FEF79EFF002815D03046FCF799FB002893
:10F9B00012D0002168460170FCF75EFB0748A900E1
:10F9C000081801683143016068460078FCF772FB53
:10F9D0002046F8BD0824FBE70724F9E700F80140BA
:10F9E000F8B506460D4600240846FEF78CFF0028B1
:10F9F0001CD02846FEF774FF002815D03046FCF7CF
:10FA00006FFB002812D0002168460170FCF734FB20
:10FA10000748A90008180168B143016068460078EA
:10FA2000FCF748FB2046F8BD0824FBE70724F9E76C
:10FA300000F80140F1B50427032682B0002400201D
:10FA4000694608706846FCF717FB0125A54035425A
:10FA500004D02046FEF744FF00280CD0684600780A
:10FA6000FCF728FB002F04D0641CAE43E4B2002E48
:10FA7000E5D13846FEBD074901204A78A040104331
:10FA8000487002980027047068460078FCF712FB63
:10FA9000EFE70000F821002070B505460024FEF7CE
:10FAA00032FF00280BD02846FEF71AFF002808D0A6
:10FAB000054A0120E90089180860204670BD072426
:10FAC000FBE70824F9E7000000F00140F8B5044620
:10FAD0000025FEF718FF002800D107252046FEF775
:10FAE000FFFE002814D00B490126E00040184660B4
:10FAF000002168460170FCF7BFFA0748A64041782C
:10FB0000B143417068460078FCF7D4FA2846F8BD46
:10FB10000825FBE700F00140F821002004480178A7
:10FB2000002901D085207047012101700020704715
:10FB3000F821002015220068890092018918405898
:10FB40007047026888004030C0B2101870470068E3
:10FB50000121C160704770B5012424048C40032644
:10FB600005683602AD19002B01D06C6000E0AC6076
:10FB7000006889000818052109024018026470BD58
:10FB800002688800FF30413080B210187047026868
:10FB90000120000488400321090251188860704741
:10FBA0008A0010B5FF324132036892B200249C50A3
:10FBB00002680120000488400321090251184860AE
:10FBC00010BD000002680121116100790C22504330
:10FBD000014A801801727047082B00200168012239
:10FBE0000A6000790C225043024A022180180172F7
:10FBF00070470000082B0020F0B5FF25023504688F
:10FC00008D40FF34FF340234059E2768AF432760E0
:10FC10000468FF34FF34023425681D4325603346F1
:10FC2000FFF799FFF0BD000070B504460D4600795E
:10FC30000C21484322494618307A002801D0082078
:10FC400070BD002A05D032606868706000200346ED
:10FC500008E0072070BD8100FF3122684131535018
:10FC6000401CC0B261798142F5D82068E978000B68
:10FC700040B2FFF715FC05202168000209186A78D8
:10FC80004B68D2075B085B00D20F13434B602168BF
:10FC9000AA7809188B6892079B089B00920F134360
:10FCA0008B6022682978101802690907120912016D
:10FCB000090F0A43026101203072002070BD00006C
:10FCC000082B002030B503460068C103C90E01208F
:10FCD00088401049086019680020FF31C043FF3197
:10FCE00002310A6800240C60032219681202891884
:10FCF000886018790C21084D48434019007A022881
:10FD000002D11846FFF75EFF18790C2148434019CD
:10FD1000047230BD80E100E0082B002070B5520075
:10FD20000A439900049D0A432902059E0A433104AF
:10FD300005240A43240780000721001909024018FE
:10FD4000026070BD70B552000A439900049D0A43D9
:10FD50002902059E0A43310405240A432407800032
:10FD60000721001909024018026070BD1CB500216E
:10FD700000910B4601220191FFF7E4FF1CBD052213
:10FD8000120780008218072000021018026803235F
:10FD90001B049A430260026809040A430260704728
:10FDA000052212078000821807200002101802683E
:10FDB00003231B049A430260026809040A43026099
:10FDC00070470000012282400348002901D0826070
:10FDD0007047C260704700000005005038B5084BFE
:10FDE00005241B68009324026B46411805E085003A
:10FDF0005D592D192D69401C20C28142F7D838BDAC
:10FE00008030020002494018002101607047000064
:10FE100000600040034940180068012800D000201D
:10FE200070470000006000404058002800D00120CA
:10FE300070470322120280184068084000D0012059
:10FE4000704710B5002809D0032806D10220FDF71D
:10FE50006BF8002801D0FBF70DFE10BD02F0FEF993
:10FE600010BD000010B50446008888B03A2821D0A3
:10FE700009DC022824D0102811D011280DD100202F
:10FE8000FDF752F819E051281ED0552805D1A08859
:10FE9000132176DF11E0FBF7EDFD08B010BD072060
:10FEA000FDF742F8002801D0FBF7E4FD1549A088D2
:10FEB0008880F2E7A088132176DF0028EBD1ECE7F9
:10FEC000A088002167DFF8E71022A11D04A8FBF736
:10FED00077F96846017C0029DFD0007E042803D032
:10FEE000062801D00528D8D1022908D0012069466A
:10FEF0000870FF2083308880A088A8DFDDE702201B
:10FF0000F5E70000E81F002010B50078002807D1B1
:10FF100004483B21808876DF002801D0FBF7AAFD4A
:10FF200010BD0000E81F002010B5134A00215170D9
:10FF3000017A012911D002290ED18189491C8181C0
:10FF4000C189491C89B2C181028A914204D1002130
:10FF500001F0B8FF01F0F4FB10BD838AC28A991A40
:10FF6000FF2901DC89B201E0FF210131511889B27A
:10FF7000C1829942EBD010BD58220020F7B51C4D2C
:10FF80000E4601466A6F002082B0032A2DD82C4607
:10FF900078340827636CBF1BBB4226D8286F101823
:10FFA0008007800F1C2250434019FBF709F9686F46
:10FFB000401C6867002E17D0216C606C4018400709
:10FFC000800E00190023009009E00498D9000A1857
:10FFD00006CA009806C06846FDF718F95B1CB342D4
:10FFE000F3D3606C80196064012005B0F0BD00009F
:10FFF000602B00200389CA1C9A1802814289511A79
:020000040002F8
:10000000C91E418170470000F7B50D4601218902E4
:1000100047180446002608340220288012E02046B3
:10002000FEF704FA002817D00C48A16842689142F4
:1000300000D94160608881000C1929880818C01C0B
:1000400028800C34BC4202D22068401CE7D10298C0
:10005000002800D00670FEBD0126EBE740220020FC
:1000600008B50021009101460223024A0248FDF72B
:1000700025FE08BD983002007C22002008B5002033
:100080000090044802230168034A0448FDF716FE65
:1000900008BD000050220020903002007C22002089
:1000A000F8B50025354F2C462E4600953448B10250
:1000B000006840180168B94205D1324A4168891880
:1000C00030D001290CD000218A0082580346521CEE
:1000D00036D003202C4922018854641CA4B21BE0B2
:1000E000009900290CD0284B022221015A54274A9A
:1000F0001368254A891802224B60641C0A81A4B245
:10010000224900220860091DFFF77EFF1F488088F2
:10011000022831D008200543761CB6B2032EC5D381
:10012000E8B2F8BD1849002322018B5451180A4641
:1001300048600E320831FFF767FF02200543CCE725
:10014000491CFF29C0D911490A68002A0CD00E4A5F
:1001500002212301D1549A1850600B48118120309C
:100160004480641CA4B204E002200B60888001205B
:10017000009001200543CFE70420CCE7DEC0ADDED0
:100180007C22002002FEE10E202C002050220020C4
:1001900070B5184D0E46044623CD86B002950090EA
:1001A00001916846448082808371134D2046A9786E
:1001B000FCF748FC002803D03046FEF79DFA0FE01C
:1001C0000721304600F0E2F9002809D0052807D1C0
:1001D000092269460A73CC81049003A8FDF766FAE8
:1001E000002229782046FCF73FFC6846FDF75EFABE
:1001F00006B070BD64300200DC210020074A904246
:1002000001D1074803E0074A904202D10648C16085
:100210007047064A9042FBD10548F8E7008000404D
:10022000008C004000900040009C004000A0004076
:1002300000AC0040F0B585B00746FCF7F7FB00289E
:1002400014D06846FCF726FB00246D460BE06000E6
:100250004619B0883946FCF7F5FB002802D0B08873
:1002600002F0F0F9641C0098A042F0D805B0F0BD8F
:1002700070B5054D06460024A00029583046884731
:10028000641C052CF8D370BD243002003EB50F4D20
:10029000002414206043401902F02CFD641C082C3B
:1002A000F7D30821502001910A490124C20002908D
:1002B000074B0094881800F0DAFC002801D00320D6
:1002C0003EBD0348447000203EBD0000642900206C
:1002D000C4210020D426002010B500F043FA10BD40
:1002E00010B500F043FA10BDF0B5002585B00095BB
:1002F000019502950395044641886846418021791D
:1003000001712E462179608802F0CEFC227804210A
:10031000404F1300FBF78CF90A0606361C1C383ECA
:1003200043484B4D00280DD0417CC9070AD002F04C
:10033000F3FC684606702078012800D0002069464A
:1003400008722AE0012069460870A068029024E043
:1003500000280ED08268A3689A420AD1427CD30753
:1003600007D07B6852085B1C52000A437B604274D2
:100370001FE0022069460870E06803900DE0FFF777
:1003800077FF16E0032006E068460170E0680290FF
:100390006846F4E70520694608700846EFE706203E
:1003A00069460870E068D1E701250720F3E7E068B7
:1003B00002907868002824D0174E00241420274685
:1003C0004743B819417C4A0703D48907C90F29421A
:1003D0001CD08178F05B00F0EFF8002816D01421D3
:1003E0004C43325B69464A80B9198A7869460A717A
:1003F000862808D009216A46117002906846FFF7E6
:1004000037FF05B0F0BD08200870F7E7641C082C22
:10041000D4D3F6E7C42100206429002010B500F0F1
:1004200069FA10BD10B5002300F0D6F910BD38B53B
:100430000546002420460AE08178284600F0A6F808
:10044000002802D0052800D003240098401C00900A
:100450006946284602F03AFC0028EDD1002C07D16D
:10046000284600F04FFA002802D0072802D00324C3
:10047000204638BD0724FBE710B51346002200F0E4
:10048000E3F910BDFFB581B0049815460E4600286B
:1004900004D0072E05D0082E19D102E00E2005B099
:1004A000F0BD002D13D0082D11D8019800F035FAB9
:1004B00000280CD0002000903146019802F0F4FB97
:1004C000041E26D0E068A84212D2002709E00720C7
:1004D000E5E7207CC019C1B22A4800F000FC7F1C6F
:1004E000FFB2E068B842F4D8204602F003FC10E006
:1004F000A84217D9EFB207E0207CC019C1B2214849
:1005000000F0EDFB7F1CFFB2E068B842F4D8002C8D
:1005100008D1FF211C48019F02F0C6FB041E05D034
:100520000780A670207CFF2802D00AE01120B6E7E1
:100530002946144800F06CFB2074FF2813D00120DA
:100540000090E560217C0F4800F0B2FB02000ED065
:10055000ABB23146049800F071FA009800280FD031
:10056000082E06D00CE0204602F0C4FBDEE7032094
:1005700095E704980499008849688000801F888066
:1005800000208CE754290020FFFF000070B50024F4
:1005900002F08AFB05000CD06868002804D000F047
:1005A000D8F9040000D00324284602F0B5FB204609
:1005B00070BD052070BD00007CB50D4606460729BC
:1005C00003D0082D01D007207CBD002000900190B1
:1005D000684685702946304602F066FB040004D068
:1005E000607CC00703D000207CBD05207CBD217C41
:1005F000214800F05DFB020025D029466846E368EB
:1006000000F0AFF9684602F03DFB23460833694627
:100610003046626800F018F90246607C17494307CB
:1006200004D5830702D54B685B1E4B60FB25FD2379
:10063000002A0AD0112A0DD0862A14D0072A00D009
:10064000032210467CBD03207CBD012108432840C5
:1006500018400EE04A68521C4A60042108431840C2
:1006600060740022EDE74B6828405B1C4B60022160
:1006700008436074E5E7000054290020C4210020ED
:100680007CB50D46072903D0082D01D007207CBD7D
:10069000002602F009FB040003D06068002802D0A5
:1006A0001BE005207CBD217C0E4800F001FB0246CA
:1006B00000200090019068468570002A0FD02946DE
:1006C000E36800F04EF9684602F0DCFA211D684646
:1006D00000F027F90646092801D030467CBD0320EA
:1006E0007CBD00005429002001490968084700002A
:1006F0002030020070B588B01748FDF787F9002850
:1007000002D0032008B070BDFDF7BCF8002801D06E
:100710008620F7E700F0E8F90020104C0290E61F71
:1007200003900DE0694604A8FDF734F9009880882D
:10073000801B85B204A8FDF7EBF8284600F088F985
:1007400002AA04A92046FDF70AF90028EAD00449C4
:10075000012008700020D5E7D5D6010007C00000B1
:10076000B821002010B500F09DF910BD10B500F0C3
:10077000A1F910BD70B505460320800386B014466C
:100780000E46281880B20F4A6946FDF7E8F800289F
:1007900005D103A96846FDF7FDF8002802D0002026
:1007A00006B070BDA57003984088208004986060F2
:1007B00003988088FDF77AF930806846FDF7A8F83D
:1007C0000120EDE7BC21002002480021416081604A
:1007D00070470000B8210020F0B587B01D461446D0
:1007E00007460E46FF280CD8084600F017F90028E7
:1007F00007D003AA3146384600F0F8F8002809D19E
:1008000002E0072007B0F0BD01A903A8FDF7C2F878
:10081000002801D00520F5E7A6700198002D40883A
:1008200020800AD082002868904204D8029960682B
:10083000FAF7C6FC03E00420E4E70298606003A82E
:10084000FDF766F80020DDE77FB588B01D460C4651
:100850000646FF2831D8A07800F0E0F800282CD018
:1008600060680690208869468883304600F076F9F3
:1008700069460880A07803218903401869464880AA
:1008800006A8019001200881A17803AA304600F053
:10089000ADF8052813D00AA8FDF7E4F8694603A8C7
:1008A000FDF79AF8002818D0072820D008281CD077
:1008B0000E281AD003200CB070BD0720FBE70A9861
:1008C000002805D00AAA694603A8FDF795F8E9E7CC
:1008D000694603A8FDF78AF8E4E7002D03D029460E
:1008E00003A8FDF74CF80020E5E71120E3E7862098
:1008F000E1E7000010B5024800F0AAF810BD0000C2
:10090000FFFF000010B5FF2801D9072010BD00F03F
:10091000A7F800F02BF8002010BD10B500F0F8F893
:1009200010BD70B504460D46807800F077F80028B9
:100930000BD021882846FDF77BF8002804D0072833
:1009400005D0092800D0032070BD072070BD862087
:1009500070BD01B56846FDF785F8002800D003207A
:1009600008BD10B59BB200F069F810BDF0B589B0B4
:1009700000261C4F04963846059603E0204600F0FA
:1009800083F8204600F08EF80446B84207D000F005
:10099000E5F804AA06A9FCF7EAFF0A28EED0124DF2
:1009A000A878002819D1BC4217D003208003012762
:1009B0002018AF7080B2FCF71BFF08280FD000286A
:1009C0000BD0AE70092269460A704C80FF220A7172
:1009D000039002966846FFF787FE09B0F0BD6F707E
:1009E000FBE70000FFFF0000B82100207CB50546B2
:1009F00016460C46084600F011F80020032100902E
:100A0000890301906818611880B289B26B4632463A
:100A1000FCF79EFF002800D005207CBD07280BD0E6
:100A2000012809D0082807D0052805D0062803D0BA
:100A3000042801D0002070470120704710B55024D1
:100A400063439BB28170DB1C99084260018010BD3A
:100A500010B50249FCF7E6FB10BD0000042A002097
:100A600010B504460648844207D006492046FCF7E4
:100A7000D9FBA04201D1012010BD002010BD000013
:100A8000FFFF0000242A002010B50446044901F0AD
:100A900045F803492046203101F040F810BD000020
:100AA000042A002010B50249FEF774FC10BD0000B6
:100AB000242A002070B50A49FEF76CFC0446094D53
:100AC00008E000F031F8002807D005492046FEF77D
