:020000040000FA
:1000000060130020D5000000EF000000F1000000A8
:1000100000000000000000000000000000000000E0
:10002000000000000000000000000000F3000000DD
:100030000000000000000000F5000000F7000000D4
:1000400075040000F9000000B1050000F90000008F
:10005000F900000000000000B9020000F9000000F3
:10006000F9000000F9000000F9000000F9000000AC
:10007000F9000000F9000000F9000000F90000009C
:10008000F9000000C9040000F9000000F9000000B8
:10009000E9040000F9000000F1040000F90000008C
:1000A000F9000000F900000000000000000000005E
:1000B0000000000000000000000000000000000040
:1000C0000348854600F0BAF800480047293A000086
:1000D000601300200321094802680A4302600848AF
:1000E00002680A4302600748804707480047FEE766
:1000F000FEE7FEE7FEE7FEE7FEE70000240500401E
:100100005405004011050000C100000030B50B4649
:10011000014600202022012409E00D46D5409D42E1
:1001200005D31D469540491B254695404019154667
:10013000521E002DF1DC30BDF0B51FB40646002084
:1001400082B005464024019100901BE001992246AF
:100150000F46304600F061F8049A059B801A9941D9
:1001600010D310461946224600F047F8361A8F4140
:100170000197224601200021009F00F03EF8381828
:100180004D4100902046641E0028DFDC019B009852
:100190002946324607B0F0BD03460B439B0703D008
:1001A00009E008C9121F08C0042AFAD203E00B783C
:1001B0000370401C491C521EF9D27047D2B201E0B4
:1001C0000270401C491EFBD270470022F6E710B5B2
:1001D00013460A4604461946FFF7F0FF204610BDB5
:1001E00030B504460020034600E05B1C934203D276
:1001F000E05CCD5C401BF8D030BD10B5202A04DB9C
:100200000146203A9140002010BD914020239C1AC5
:100210000346E3401943904010BD10B5202A04DB8B
:100220000846203AD040002110BD0B46D340D040B4
:100230002024A21A91400843194610BD064C0125FE
:10024000064E05E0E36807CC2B430C3C984710347E
:10025000B442F7D3FFF738FF086F0000286F0000A3
:1002600070B58C180578401C6B075B0F01D10378C3
:10027000401C2A1106D10278401C03E006780E705B
:10028000401C491C5B1EF9D12B0705D40023521ECC
:100290000DD40B70491CFAE70378401CCB1A921C52
:1002A00003E01D780D70491C5B1C521EF9D5A1425C
:1002B000D8D3002070BD0000F0B50024FF268BB01D
:1002C0000136012527460694304603F04DFF0028ED
:1002D00007D054484068284203D0304603F03CFF22
:1002E0002C43361D6D007F1CB6B2042FECD3FF25C6
:1002F0007D35284603F038FF002809D0284603F052
:100300002BFF6807044306AA0121002003F010FF19
:10031000454D200714D00127002627420CD0434822
:10032000B200111808690969C004C00E8903AA58EF
:10033000890F002A00D090477F00761C042EECD352
:10034000002C6DDA00200890401E63E02819403030
:100350000778B906890E009100214156491C49D001
:1003600009A9009803F012FD002843D0B8090190B4
:10037000009801F0A9FC80002F580198002F02D0AE
:10038000032802D00DE0032834D1009808ABC2083E
:1003900041079446985C490F01228A401043624607
:1003A0009854009805210907800040180721090288
:1003B0004018006806A98003800F0290009803F09F
:1003C000E5FC0028029802D0022802D012E003289F
:1003D00010D10198032808D1029802281ED00221CA
:1003E000009803F088FE761CF6B2002F02D0019927
:1003F0000098B847641C042CA8D3002E10D06A467D
:100400000121002003F094FE06990098884207D04D
:100410000690089800263446099097E70321DFE705
:100420000BB0F0BD0063004054090020006500409F
:100430008307FF22DB0E9A408907090E99400028A6
:100440000BDA0007000F0838830808489B001818CB
:10045000C36993430B43C3617047830804489B00FF
:100460001B181868904308431860704700ED00E0BF
:1004700000E400E0F8B5FF20013003F08FFC002419
:1004800001250E4E0E4F002807D00E4804600120B3
:10049000B0607D70002001F059FCFF20053003F0B2
:1004A0007DFC002808D00748001D04600220B060D1
:1004B000BD70012001F04AFCF8BD000000030040BF
:1004C000400900200001004010B5064900200860E6
:1004D00048608860C860034940390860486006F099
:1004E00055F910BD4011014010B506F0C1F810BD1E
:1004F00010B506484068002805D08047002801D084
:1005000000F082FA10BD02F033FF10BD3801002068
:1005100010B502F07BFF002805D01F491D48486038
:10052000C8131E4988611E48018CC9B201290BD12C
:10053000828C120708D1028D1206120F042A03D1F1
:10054000828D1206120F0AD0012921D1818C090750
:100550001ED1018D0906090F0A2904D007E0114AAE
:1005600001219160F5E7828D1206120F05D00D2949
:100570000ED1808D0006000F0AD10B4801680129B9
:1005800004D00A49016001680129FCD1C021416100
:1005900010BD0000DFFF07C000050040006C0040F8
:1005A000C00F00F00006004000EC0640759300000C
:1005B00010B50249024806F044F910BD9C0900201C
:1005C0000020004030B47446641E2578641CAB42A1
:1005D00000D21D46635D5B00E31830BC184702E0A3
:1005E00008C8121F08C1002AFAD1704770470020BE
:1005F00001E001C1121F002AFBD17047202804DA54
:10060000012181400348014201D0012070470020B0
:1006100070470000FC06FFBC10B500280CD0002974
:100620000AD002780B789A4206D10622401C491C57
:10063000FFF7D6FD002801D0002010BD012010BD1D
:10064000F7B584B006460025178815802030029043
:10065000407B1446002806D03A462146059800F013
:100660008DFF050009D1B078002823D00598864673
:100670002088001DB84202D90C2007B0F0BD6846A2
:1006800079DF0028F9D12188032072465054208850
:100690001921401C80B22080115420887146401CD2
:1006A00080B2208041186846008806F05EF92188F3
:1006B00040182080F078002817D0218803230A46AC
:1006C000F356C91C0598B942D6D802218154218815
:1006D0000122491C89B2218042542188491C89B2D7
:1006E000218043542088401C20807068002817D047
:1006F00021880023C3560A46C91C0598B942BBD8B5
:100700000221815421880A22491C89B22180425445
:100710002188491C89B2218043542088401C2080B4
:10072000308900280AD00094304601970622022121
:100730000830059B06F072F905009ED1308A00282A
:100740000AD0009430460197072203211030059B00
:1007500006F064F9050090D1308B00280AD000948F
:1007600030460197152214211830059B06F056F9E2
:10077000050082D1306A002806D03B462246059902
:1007800001F04CFB0500D8D1706A002806D03B462A
:100790002246059903F02EFA0500CED10298007B7F
:1007A000002807D03B4622463046059905F0C6FB97
:1007B0000500C2D13078002807D03B46224630469B
:1007C000059903F04BFA0500B7D1284655E700001C
:1007D000174A0021535C002B01D0012203E0491C81
:1007E0000629F7D300221349012806D002280BD08E
:1007F000032810D0042818D112E04878002803D02C
:10080000002A01D0012070478878002803D0002AF0
:1008100001D002207047C878002801D0032070471B
:100820000879002801D0042070470020704700009C
:100830004D000020F802002010B501220221002006
:1008400001F0C4F8002801D0072812D107220221A4
:10085000012001F0BBF8002801D0072809D10021B0
:100860000A22084601F0B2F8002801D0072800D17A
:10087000002010BDF0B50F468DB0002116466D4624
:100880000F24621A825C6A54491C1029F9D3284645
:100890000D211030FFF799FC0020221A395C521903
:1008A000401C11740328F8D368464DDF0020211A3C
:1008B0004919203109783154401C0328F7D30DB071
:1008C000F0BD000070B590B005461C216846FFF7EA
:1008D0007CFC6946087804210843694608700024B6
:1008E0000194039404940594012608A906948E703B
:1008F000144869460884601C00070794000F0C77B1
:1009000020304877887FF9210840F721801C084073
:10091000EF210840B0436946887714210AA8FFF701
:1009200054FC08A90C7107A80A910B9069460E8621
:100930004C868E8609A80E90A888AB1D0AAAA2DF55
:1009400010B070BD062A000010B5022000F0F6FEBF
:1009500010BD000070B50024064D06E06968E00097
:10096000085C012103F0AEFA641C28788442F5D3B8
:10097000002070BDDC000020F8B515460C46064688
:10098000052A01D20720F8BD03F074FB002803D12B
:1009900003F042FB0028F6D1104900204E600C7095
:1009A000C8608D6008610E4D0DE0E0006968801937
:1009B000009181786A46517000780A4A694603F0CE
:1009C000CDFA0028DFD12046641EE4B20028ECD125
:1009D000054A0021024800F023F8F8BDDC000020A1
:1009E000EC6E0000F92C0000B91F0000BFF34F8F20
:1009F00004490348C860BFF34F8F00BFFDE7000004
:100A00000400FA0500ED00E00EB50021029000910F
:100A10006A4601910148FFF7E9FF0EBD0140000061
:100A2000094B5B68002B07D0002A07D0002805D0AF
:100A30000068037C002B03D0082070470720704714
:100A4000417442610020704700010020FFB5074655
:100A50009007002581B01E461446002825D1002CA1
:100A600023D004F0ADFF3046114EF0603046103018
:100A7000057045700299817044607560357001247D
:100A80000C4875702405046003211420FFF7D0FC86
:100A900009480460094CA76003211120FFF7C8FC36
:100AA0006068B060002005B0F0BD0720FBE70000E3
:100AB000F000002080E200E000E100E000150140CD
:100AC000FEB51F4B5B68002B30D000282ED00529C7
:100AD00001D20720FEBD4369002B27D0437C012BA8
:100AE00026D00027029104460025694616460D705F
:100AF000684600F03DF801A805F07AFF002819D0FB
:100B0000012101700F4944604968816002990761C1
:100B10004661C16068460A490079487068460078B5
:100B200000F044F805F0E6FD2846FEBD0820FEBDB5
:100B30000F46D7E768460425007800F037F8F3E75A
:100B4000000100200015014010B50849496800293E
:100B50000AD0002808D04169002905D0002101747D
:100B6000022105F0EFFD10BD082010BD000100209E
:100B700030B5EFF3108172B6094A54680123002C96
:100B800004D00370002900D162B630BD5360054B1C
:100B90001D68054C254015601C6000220270F1E7BD
:100BA0001401002080E100E0FC06FFBC08494A680F
:100BB000002A0CD000280AD1EFF3108072B60A6820
:100BC000044B1A6000224A60002800D162B67047C8
:100BD0001401002000E100E0F0B504468BB000886D
:100BE00000F068FC0590208802F030FB0646A06803
:100BF0000090657A684605741E4F20880022397877
:100C000000F0A8FC0598002831D06079400710D585
:100C10000721304603F05EFE002813D00822694603
:100C20000A7422884A828E82069004A801F0B4FADF
:100C300008E02088B97800F07BFC002802D030461C
:100C400002F0EEFA0321684601712188C1806079C3
:100C50004007C10F68460172A0794007C10F68467E
:100C6000417201788172C57201A801F095FA0BB04A
:100C7000F0BD0000C0000020F0B50546007D002456
:100C800093B00E4600280DD0012001466846103171
:100C900003940173717B4173817BF92001406846A5
:100CA000891C81731C2104A8FFF78FFA6946087C10
:100CB00002210843694608742A7DEF21002A02D0E8
:100CC0001022104300E008406A461074059407940F
:100CD0000894287D002800D003A8099001270A94D1
:100CE00010469771304A82800094B27B0270F27B8A
:100CF00042708078F9221040F722801C1040EF21CA
:100D000008404108490068468170317B0172142116
:100D10000BA8FFF75AFA01A80B9068460C9087863B
:100D2000C486078702A80F90A888AB1D0BAA04A948
:100D3000A2DF002835D1B068002830D0684687711E
:100D40001A4981800094317C017000200146684678
:100D500041708078F9210840F721801C0840EF217C
:100D60000840410849006846817011A8B16800F048
:100D700090FC064614210BA8FFF727FA01A80B9058
:100D800068460C908686C486068711A80F902A466E
:100D9000E8880E320BA9A3DF002802D100E0EC8125
:100DA000002013B0F0BD0000192A0000082900003F
:100DB00010B50B490B4805F019F8C1B2084828389E
:100DC00000F0DEF9002809D0082807D0064988423B
:100DD00004D00649884201D0FFF716FE10BD00007E
:100DE00088020020080000200430000001340000C8
:100DF000F0B50C4693B01F216A46118007260027E4
:100E00009180002809D0C17849070DD502A9FFF7C4
:100E100017FC002809D102AD01E000251780002C45
:100E20000ED0E078002802D0304613B0F0BD01AA01
:100E30000AA92046FFF704FC0028F6D10AAA02E01E
:100E400068460022878068468088C3B2684600886A
:100E5000C1B2284672DFE8E7FFB581B01E460A9F9F
:100E60001346040047D0002B45D0504D0120287078
:100E70000020E870202219464D48FFF78DF9002028
:100E80006F61C0432E612881284607211830FFF783
:100E90009CF947483C212030FFF797F944482178D6
:100EA00020300170A1788170E178C1706178417063
:100EB0003F4A656923695563114613632031E3682E
:100EC000A268CB608A603A49E369A269CB638A630E
:100ED000616A00291AD001463C310246483241621B
:100EE0008A60636A1B880B80616A436A898899807B
:100EF0000021436A07E00E2005B0F0BD656AAD68C9
:100F00006D5C5554491C9D888D42F7D8A16A002913
:100F10001CD0274A943211460C398A608162A36A38
:100F20009B888B80A16A836A098819800021836A63
:100F300004E0A56AAD686D5C5554491C9D888D42DE
:100F4000F7D82C210A5D1A4940310A73216A002919
:100F500009D016490A310162226A52884A80216A00
:100F6000026A098811806168002900D04160104A36
:100F70000E490020B3322031C3001B1A85009B1894
:100F80000C68401C63510828F6DB094A0020EB324C
:100F9000030185009B188C68401C63510828F7DB0F
:100FA000034802992030FFF723FFA5E73400002013
:100FB000F802002010B50188134C102915D0112912
:100FC00019D01B2910D1007A00280DD1E078052115
:100FD000401CFFF79BF8084600F04EF8002803D0AD
:100FE0006169002900D0884710BD817D0129FBD1AE
:100FF0008088208110BD002161718088218988420C
:10100000F8D10120E8E700003400002010B50228E4
:1010100001D003280ED1084C607800280AD00020A7
:101020006070E07800F028F8002803D0616900299A
:1010300000D0884710BD00003400002010B574DFD8
:101040000B4C012060710B490620C8700021094833
:10105000FFF7CEFE002809D1E07800F00DF8002857
:1010600003D06169002900D08847002010BD00002E
:101070003400002018030020F1B53F4C88B02078E0
:1010800000280AD00898E07006A801F081FB0698B5
:101090000125002804D065706AE0082009B0F0BD81
:1010A0003548002707211830FFF78FF8334E707846
:1010B000002802D0E078012807D0B07800280CD0B2
:1010C000E078012801D0022807D12169002903D046
:1010D00025710820884700E027710898FFF778FB02
:1010E000E0702169002909D0032801D0042805D126
:1010F0003078002802D06079002811D0A77118211B
:101100006846FFF762F8684607700772E1781A4888
:101110000B001830FFF756FA052E080F191D200096
:10112000A57107208847EAE7A57001906846057019
:101130004782078213E00221A17001906846057082
:10114000B18941823189018209E0684604F078FF63
:1011500002E0684604F0A0FFE078002803D068466B
:1011600073DF00289AD12169002901D0A07888472F
:10117000002093E7A770F6E734000020F802002073
:1011800073B586B004002FD06A46217C127F002000
:10119000914227D0002501266846009506804580AB
:1011A00007A80190E188608A6A46A4DF002819D167
:1011B0006846007F2074608A0D49884216D0207DE1
:1011C000002813D00295039504950595E18868469B
:1011D0000181867241888181049001980590608A1E
:1011E00002A9A6DF08B070BD0E20FBE70820F9E7D2
:1011F000FFFF000038B50D4604001AD0002D18D0AE
:10120000286820600020C043608228792075FF2074
:10121000207401216846817007490180221D6946BA
:101220000120A0DF002803D129462046FFF724FD36
:1012300038BD0E2038BD00000F18000038B500285A
:1012400024D0002922D00A88102A1AD0112A1AD0B4
:10125000502A1BD10446007D002817D0C888628917
:10126000891D904212D1488902280FD12068002898
:101270000CD008460C3000F005FA002807D00020FA
:1012800006E0898801E00021C943418238BD012080
:101290006946087022682046904738BD70B50546FB
:1012A00001461C220E48FEF777FF0E4C00262670E2
:1012B0002968002906D00822201DFEF76DFF201D99
:1012C0007ADF02E00748001D7BDF002807D1401EBF
:1012D00060806670044A00210448FFF7A1FB70BDDE
:1012E000C40400206400002075690000646E0000E2
:1012F000F8B5214C0146028800261E48E589102ACF
:1013000013D01E4F112A1FD0122A2BD0502A1AD1C7
:10131000881DC988A94216D14189022913D10C30F0
:1013200000F0B0F900280CD112E08A88044642800F
:10133000104808220C301831FEF72EFF6670002D81
:1013400001D100F0B3FDF8BD0021C94341804670D2
:101350003868FFF7F9FB0028F5D0A1690029F2D021
:101360008847F8BD034808220C300831FEF714FF07
:10137000E7E7000064000020C4040020646E000061
:1013800010B503490A7D091D04F0EFFB10BD0000F4
:10139000E0040020034B10B50246D97D181D04F06F
:1013A000D1FB10BDE0040020034B10B50246197EAE
:1013B000181D04F0C7FB10BDE0040020F0B5044682
:1013C00002883A488DB0014615310191102A09D0A2
:1013D000112A50D01A2A4AD1217A090901294ED955
:1013E00001234DE0027D417D05468A43011D07A88A
:1013F00004F0BBFB142207A902A8FEF7CDFE0026CD
:101400002A483746143008900AE0710002A80818EC
:1014100083881D220097281D089904F053FB761C31
:101420000298B042F1D8287DA688C043C0B204F02B
:101430006DFB1F49884217D0400040198680012368
:101440003246281D019904F0B3FB01233246281DC2
:10145000089904F0ADFBA07D02280AD000231349AF
:10146000A2881631281D1DE00420FFF7CDFA0DB02B
:10147000F0BD0123F3E70023A288001D12E0002342
:101480000A490546A2881731001D04F091FB207A15
:101490000009022801D9012300E000230349A288A2
:1014A0001831281D04F084FBE1E70000E00400206F
:1014B000FFFF000070B50B4E05460024317D2A4623
:1014C000301D04F03FFB002809D0B17D2A46301DB5
:1014D00004F038FB002801D0022400E0012420465B
:1014E00070BD0000E004002010B50024204605F087
:1014F00073FA002805D0641CE4B2182CF6D3182027
:1015000010BD044801220168A24011430160204639
:1015100010BD0000E004002010B5044605F05CFAA0
:10152000002802D001480019407E10BDE0040020D0
:1015300070B505460C46084605F04EFA002806D060
:1015400003482A460119497E001D04F0FBFA70BDCC
:10155000E004002070B5064615460C46084605F026
:101560003BFA002807D004482B4601193246001DDB
:10157000193104F01DFB70BDE00400207CB5054668
:1015800008880C460930904201D90C207CBD684681
:1015900071DF0028FAD121880820685420881B2197
:1015A000401C80B220802954208800A9401C80B2B1
:1015B0002080401906220131FEF7EEFD20886946A1
:1015C000801D80B220800978002900D00121295493
:1015D0002088401C208000207CBD000010B50446FF
:1015E000FFF7ECFE204603F04FFE21460A48FFF7C6
:1015F00025FE09482146183000F02AF82046FFF75A
:1016000077FE204600F026F9204602F0D5FD204660
:10161000FFF7D0FC10BD00006002002038B5044682
:10162000086800280FD020600121684681700749B2
:101630000180221D69460120A0DF002802D120463A
:10164000FFF740F938BD072038BD00000218000040
:1016500008B50A88102A12D0502A0FD1CA88C38828
:10166000891D9A420AD14A89012A07D100236A4674
:101670001370097B517002686946904708BD8988DC
:10168000C18108BD4178027808021043C007C00F2D
:1016900070470A7802704978417002207047000054
:1016A00000B5174887B08068059000234822154987
:1016B00005A804F099FF002801D0FFF7A5F96A46B4
:1016C0000121002004F078FF002801D0FFF79CF9E9
:1016D000684604F067FF002801D0FFF795F90A4833
:1016E00004F056FF002801D0FFF78EF9074804F0F8
:1016F000ADFF002801D0FFF787F907B000BD00005B
:10170000346E000018020020DD1500006166000044
:101710000149085C70470000406E00000549095C03
:1017200005480069C840C007C00F00D00120012152
:1017300048407047406E00000005005005490B5CB2
:1017400005494A6801209840034693438B60104046
:10175000C8607047426E00000005005010B5034994
:10176000085C012102F0D8FC10BD0000426E0000B0
:1017700010B50349085C002102F0CEFC10BD00004A
:10178000426E00000549095C05484068C840C00732
:10179000C00F00D00120012148407047426E000078
:1017A000000500507CB50024074E2546305D01221F
:1017B000009500231146019502F064FC641C032C83
:1017C000F4D300F003F87CBD426E000010B5002495
:1017D0002046FFF7C3FF641C032CF9D310BD10B5DE
:1017E00000242046FFF7C4FF641C032CF9D310BD6E
:1017F0000246002010B5C043054B00215C5C9442BA
:1018000001D1084610BD491C0229F7D310BD0000C4
:10181000406E000070B50E4E00250C463060002969
:101820000DD0012000F0ACF8002801D0022005E026
:10183000002000F0A5F8002800D00B202070706870
:10184000002802D1FEF7F8FF0546284670BD0000CB
:101850002C00002010B51C4C0188606810290DD0A8
:1018600011290AD1401E606007D1FEF7E5FF00286C
:1018700003D02168002900D0884710BD00281ED160
:1018800000210122084600F0A1F8002801D0072815
:1018900011D107220221012000F098F8002801D080
:1018A000072808D104220221002000F08FF8002828
:1018B00005D0072803D02168002900D08847606838
:1018C000401C606010BD00002C00002010B50020FE
:1018D00000F0BAF9002801D0062807D1012000F055
:1018E000B3F9002801D0062800D1002010BD000067
:1018F000F3B581B00D460198FFF77AFF0446022840
:1019000014D21E4F1C483E46143E002D27D0012DF8
:101910000DD0022D0AD160002018C0194578002D85
:1019200004D03169002901D028468847FEBD6100F6
:1019300061187D5CCF19797800290BD0B1680A2233
:1019400051430E4A8068123AFFF7BAF8002801D1D5
:101950000198B0700948B97811380155DFE78068FF
:10196000FFF7F2F80548610061181138C919005DE8
:101970008D78A842D3D0FEBD486E00002400002020
:1019800010B5FFF7CBFE10BD014610B50D48042978
:10199000008806D007290CD00A2901D104F0A6FB43
:1019A00010BD132176DF09E00028F9D0FFF72CF8ED
:1019B00010BD05498842FBD1FFF740FB0828F3D151
:1019C00010BD000000000020FFFF000070B50023E4
:1019D000022811D2440004190D4D012A02D1012917
:1019E0000DD0002246008019094E801900290CD024
:1019F000012906D0022906D00723184670BD0E30F3
:101A0000C2B22A55F9E74270F7E78270F5E70000A5
:101A10002400002010B5054A0146127B0020D207A1
:101A200002D0084600F050F810BD00001000002061
:101A3000F8B506461F480024C660026181600F4663
:101A4000B00720D50025012211462846FFF7BEFF2A
:101A50006D1C0446022D02D2002CF4D013E0002CA1
:101A600011D17A0802211448FEF786FF04000AD13A
:101A7000FEF770FF040006D10F48104A0021001F36
:101A8000FEF7CEFF0446F00701D0FFF78BFE002CD7
:101A90000ED109480A4A00210C38FEF7C1FF0400A4
:101AA00006D10548074A01210838FEF7B9FF044668
:101AB0002046F8BD10000020546E0000591C0000A4
:101AC0007934000049090000F8B55D4C054660789E
:101AD0000026002803D000206070FFF777FE012069
:101AE000584F2B00FEF76EFD18970D0D2E3D4A5FE7
:101AF00064686F686FA97777777777979A9DA0A9C1
:101B0000A9950020FFF73EFE00280AD00020FFF72D
:101B100025FE022D02D1E120C0000BE07D20400116
:101B200008E00020FFF724FE022D01D1C82001E0CB
:101B3000FF20913025706421FEF7E8FAA168414347
:101B400000222BE00020FFF71DFE002805D000201A
:101B5000FFF704FE19204001ECE70020FFF708FE24
:101B6000E4E70020FFF70EFE002803D00020FFF777
:101B7000F5FDD3E70020FFF7FBFDD9E70020FFF7D5
:101B800001FE002803D00020FFF7E8FD02E000205E
:101B9000FFF7EEFD2570A068410000223868FEF7CF
:101BA0008FFF064635E00020FFF7C8FD257007E0EF
:101BB00000203FE025702CE060700120FFF7BEFDA3
:101BC0000022A168EAE760700120FFF7B7FDA06876
:101BD00081004118E1E77868FEF7B6FF064611205C
:101BE000401B01D0002E03D00220FFF7B7FD10E00C
:101BF00001280BD9C82148436421FEF787FAA16860
:101C0000002241437868FEF75BFF06460220FFF79B
:101C1000AFFD3046F8BDFFF7D9FDCBE7FFF7D6FDA6
:101C2000C6E7FFF7D3FD04E0FFF7D0FD0020FFF784
:101C30009FFD0120FFF79CFDBCE7FFF7D0FDB9E752
:101C400010000020486E000010B5FFF761FD032171
:101C500002F040FA002010BD10B500780221FFF715
:101C600047FE10BD0022D243830004490428CA5015
:101C700002D3081820300277704700005409002072
:101C8000F0B50025ED43002A02D00023042601E030
:101C9000042308260B4C04E09F00E7597F1C04D066
:101CA0005B1CB342F8D32846F0BD26185DB220363F
:101CB00035709E00A151002AF5D1E1182031087736
:101CC000F1E70000540900200249091820200856B5
:101CD0007047000054090020002807D004498142C1
:101CE00004D80449814201D901207047002070477F
:101CF0005001002060010020044A0168914201D097
:101D0000083101E00149383901607047B40A002008
:101D100070B50D4D04460A462846AC4208D1FF2452
:101D200001342146104603F06DFAA0420AD070BD7E
:101D3000FF2CFCD82146104603F056FA002801D0AB
:101D4000204670BD284670BDFFFF000070B5084CEE
:101D5000050009D010342168002907D008682060E8
:101D6000496828468847F6E70834F4E770BD000064
:101D700040090020F8B52348416800293ED00E688C
:101D800021494C6887688078E11B0D022D0AED1C03
:101D9000002814D101201D4A000450601B4A403A1B
:101DA00050601B49400008601A4908601A49012028
:101DB00008602F2001F0FAFF124901208870B54217
:101DC00000D23546E81900020F4B000A4033186074
:101DD0000D4A5168001B091B0902090A0002000A8A
:101DE000C91C814209D9506818602F2001F0DEFF1C
:101DF00001200749400480390860F8BD03F0E0FD88
:101E0000F8BD0000F0000020001501404013014023
:101E100080E200E000E100E000100140F8B5064675
:101E2000108814468446801D0D46984201D90C2026
:101E3000F8BD32880720062AFAD31927FF01184B6C
:101E4000BA4201D99A42F3D171880629F0D3B94236
:101E500001D99942ECD19A4203D0994201D08A42E9
:101E6000E6D805216046295420881221401C80B202
:101E7000208029542088401C80B22080411930885D
:101E800004F073FD2188401880B2208041197088C9
:101E900004F06BFD2188401820800020F8BD000070
:101EA000FFFF000010B5FEF7AFFD10BDF8B51648F6
:101EB00001F09EFA144D00260C3D144C002807D06A
:101EC000616900291CD001206A461070684616E03E
:101ED0002878002805D06169002911D0684606706D
:101EE0000DE0687800280DD0A1680948002200683C
:101EF000FEF7E6FD002803D0A169002900D088473D
:101F00002E70F8BD6168F0E770000020C404002066
:101F1000646E0000F0B585B00C46002802D00120A8
:101F200005B0F0BD207900270126002806D01F4DFE
:101F3000012820D002282CD00F20F1E70297039728
:101F4000E0680190694601A803F064FC00280ED007
:101F500002988188E18000882081029803F0D4FCF7
:101F6000694609880A01124951188E7300E00A2057
:101F700002212171D4E70F4B6A460021A01D03F016
:101F800007FC002807D00B4908398F60CF600A286A
:101F9000C6D12846C4E7019803F0B6FC05498988F4
:101FA0000A01034951188E73F1E700001D1D00005E
:101FB000C40A002024010020F8B500260124154D94
:101FC00023E06968F0004718387821462A69814083
:101FD000114218D08A432A6102F014F83A78214657
:101FE000EB68914019400346934099420BD17978B0
:101FF000012901D0012100E000217B684140002B34
:1020000001D010469847761CF6B228788642D8D37D
:10201000F8BD0000DC00002010B50E4900230A784E
:102020004C78A24212D0521CD2B20A70022A00D1BD
:102030000B700A78074B920018339A580260886830
:1020400010180002000A8860012010BD0360002003
:1020500010BD0000F00000203EB5094D38CD0093C2
:10206000029501946B46588099809A710549002227
:102070000978FFF76FFA684600F08EF83EBD000061
:10208000D86E0000C000002010B5047800222300A4
:10209000FEF798FA070605070D1D262C06000A70A4
:1020A00010BD01220A7002898A81828814E002220E
:1020B0000A7002898A818288CA81C2688A60007C2B
:1020C000062802D00020087410BD0120FBE703227F
:1020D0000A70C2888A810289CA81C068886010BD7E
:1020E00004230B70C0888881CA8110BD0520087048
:1020F00010BD000070B5064D06460024A00029580A
:10210000002901D030468847641C082CF6D370BDE6
:10211000E40900200EB5002910D011290ED00022AC
:10212000009202926A46508001910D2907D08629BB
:1021300007D009201070104600F03CF80EBD0B20AF
:10214000F8E70A20F6E7000001490968084700009F
:102150008000002070B5054D06460024A0002958D7
:1021600030468847641C022CF8D370BD806E000096
:10217000F8B507460024064E064D04E0A00031588D
:1021800038468847641CE8788442F7DBF8BD0000D5
:10219000F4080020B000002070B5054D064600246C
:1021A000A000295830468847641C022CF8D370BD23
:1021B000A06E00000149096808470000E46E0000B5
:1021C0007FB50446406800280BD00020039020789B
:1021D0000026414D0300FEF7F5F9066D0606304E68
:1021E0007B6D0120F2E7A08900F0DCF9002804D122
:1021F000E08903F0A1FB00285CD0A08900F0CCF9B5
:10220000014668464180E08903F090FB014668463C
:10221000017120780128606807D0002809D00420C7
:10222000694608706068039020E00028F8D0032019
:10223000F6E70120F4E708463AE0A08900F0B2F999
:10224000002804D1E08903F077FB002832D0A08970
:1022500000F0A2F969464880E08903F067FB69460F
:1022600008716068002804D005200870A0680290FA
:10227000E1E70220F9E7A08900F094F9002819D0DD
:10228000E089002816D1A08900F086F969464880C7
:10229000E08903F04BFBFF20694608716068002865
:1022A0000FD0072008706E70AE7002F0EDFC68462B
:1022B00002F0A8FB6878002802D06E7002F0E4FCFF
:1022C0007FBD062168460170408802F06BFDEAE799
:1022D000082069460870AEE79C00002000B5104950
:1022E00087B00978890702D4022007B000BD0D49E4
:1022F000884201D10420F8E7052269460A700122CC
:102300000A71C88000221146684601F0E1FF0028EA
:1023100003D003F021FA0020E7E70820E5E70000FA
:102320001C010020FFFF000000B50F4887B00078B7
:10233000800702D4022007B000BD0620694608705D
:1023400000221146684601F0C3FF002809D0074863
:102350000178002901D00121017303F0FDF900206B
:10236000E9E70820E7E700001C010020E40A00205C
:1023700000B58DB014216846FDF727FF1E48007890
:10238000810703D56846FFF7B5FE32E0C00730D1BC
:10239000012000F02DF900F0A5F902F02BF800283B
:1023A0000ED006280FD001216A4611750300FEF7F2
:1023B00009F90C19111911191819181913161319EB
:1023C0000B200DB000BD022000F012F9012000F03A
:1023D000F5F8D7E7002000E00320107602E00220A5
:1023E000FBE711760022114605A801F071FF03F00A
:1023F000B3F90020E5E700001C01002038B5040017
:1024000014D0694603F006FA002813D06846008805
:102410000101094809188889002809D0A27A002AF0
:1024200006D0401E88810020A07238BD052038BD2E
:10243000062038BD0A2038BDC40A00201FB501A9F6
:10244000684603F0A5F904B010BD07B513460A4667
:102450006946002003F09CF90EBD07B513460A46F5
:102460000021684603F094F90EBD002805D000292C
:1024700003D0006808600020704705207047000006
:1024800038B50D46040017D0002D15D0694603F06D
:10249000C1F9002812D06846008861680201084826
:1024A00012189089401C9081296060680C30686027
:1024B0000120A072002038BD052038BD0A2038BD9B
:1024C000C40A002010B5002804D00323002204F021
:1024D0007FFB10BD052010BD10B50223002204F0C3
:1024E00077FB10BD10B5002A03D0022304F070FB67
:1024F00010BD052010BD000010B5064A517808290E
:1025000006D08B00044C491CE0505170002010BDD7
:102510000C2010BD1C010020E409002038B5044641
:102520000A480D460078800701D4022038BD002CEF
:102530000AD06946284604F057FC0028F6D16946BF
:1025400009882180658038BD052038BD1C01002028
:1025500010B504460E480078800701D4022010BD53
:10256000002C10D0218802290FD80A4A08018018AF
:1025700042896088121A032A07D404F02BFC002039
:102580002080608010BD052010BD042010BD00001B
:102590001C010020C40A002003218903401A80B2D4
:1025A0007047000003218903401A0349884201D87B
:1025B0000120704700207047FE3F000002490A7862
:1025C00082430A70704700001C01002010B50446C9
:1025D0000078182802D1FEF787FF207010BD10B5D3
:1025E00004460078182802D1FEF77EFF207010BD47
:1025F00002490A7802430A70704700001C0100205B
:1026000070B5064600200546862906D0112902D05D
:10261000002903D070BD012500E001200E4C002AE6
:1026200002460FD061793046FEF794FF2A462179A1
:102630003046FEF78FFF002261783046FEF78AFFB2
:10264000002204E061783046FEF784FF2A462178B4
:102650003046FEF77FFF70BDC4000020F8B5064687
:102660001C481F46007815460C46C0070AD0304665
:10267000FFF732FB002807D0002C07D0A00507D0B9
:102680000620F8BD0120F8BD0220F8BD0320F8BDEA
:102690003068A04204D8A80271680019884201D9A4
:1026A0000520F8BD002D10D0684602F0A7FF0028D5
:1026B0000DD000980221C0C00170A101090C8180D9
:1026C000058103F057F80020F8BD0420F8BD07206D
:1026D000F8BD00003401002010B5084602F0AAFF42
:1026E00010BD0000F0B52648264C001B0309264803
:1026F00019464069421C03D101200007406980024D
:10270000224A12789646D2070CD00020F0BD1D4C0C
:1027100015012C192568002D03D06468002C00D009
:10272000491E521C9A42F2D3002420E0E2B2002556
:1027300094462A460FE0134E1701BE193768002F42
:1027400002D07768002F05D1767BAE4202D935469C
:10275000D6B2B446521C9A42EDD362461501094ADC
:10276000AA185060157BAD02401B641C10608C429F
:10277000DCD306487146012211430170C5E7000011
:1027800060010020500100200010001034010020E2
:10279000002804D00349496E0160002070470320DF
:1027A00070470000F40A0020F8B507461E481E4690
:1027B000007815460C46C0070ED03846FFF78CFA55
:1027C00000280BD0002D0BD0002C09D02846204328
:1027D000800707D00620F8BD0120F8BD0220F8BD13
:1027E0000320F8BD3868A04204D8B1007868091900
:1027F000884201D20520F8BD002E11D0684602F0B3
:10280000FDFE00280ED00098069907604160012166
:102810000172C5600461868202F0ACFF0020F8BD41
:102820000420F8BD0720F8BD3401002070B5174B17
:102830000446186E182148431549C0180A789507B0
:1028400015D5022C02D0032C1CD102E001F016FD9C
:1028500018E04A78521CD2B24A70032A12D90022D8
:102860004A70082103F076FA02F0B2FE0AE050073F
:1028700008D5FB2002400A70586E002802D00220C2
:1028800002430A7002F032FF70BD0000F40A00201B
:102890003401002070B5002801D0012070BD164C15
:1028A0000025207B002801D0257301E000F09CF872
:1028B00020780300FDF786FE081E05080B0E1E118A
:1028C0001A1E00F01BF870BD00F07EF870BD00F01D
:1028D00061F870BD00F038F870BD608806490001ED
:1028E00020394018406801F065FD70BD656001F059
:1028F0006FFD70BD0F2070BDE40A002070B5104957
:1029000000208A1C0D460346203D0C18A67A002E96
:1029100008D0A37204016419A689002E02D1A47BF9
:10292000012C08D0401C80B20228EED30B704B80E3
:1029300004484B6070BD108000F046F870BD000088
:10294000E40A00201D1D000010B50F4C6088010135
:10295000204620380818818900290BD005202070D6
:102960000A48022181800168002301220848FFF7FC
:1029700075FE10BD4168002301220548FFF76EFE79
:102980000421217010BD0000E40A00202C01002069
:102990005001002038B50A4908480B688988426808
:1029A000890059185388032404700020DB1C009010
:1029B0009BB20448FFF7F8FE38BD0000E40A00208F
:1029C0002C0100205001002010B506494888091D3F
:1029D00002F070FF002802D0FFF7DCFF10BDFFF708
:1029E000B3FF10BDE40A0020F0B51D481D4907786B
:1029F0000246012502268C88203A3B00FDF7E2FDC5
:102A0000080517171A212C2C16170189491C01815A
:102A10000021418001730B01D35C002B08D00023FF
:102A20004418491C89B2A3720229F4D30570F0BD81
:102A30000123F5E742685288D21CA2188A800670EA
:102A4000F0BD45880B682D01AA1855680D605360CC
:102A500014818E80062100E007210170F0BD000086
:102A6000E40A00202C010020F0B504460088384D0F
:102A70008DB050281DD0522802D0542826D103E012
:102A8000A08800F03FFF21E0062069460870A0887A
:102A900000F0DCFB69464880A2888A8000F054F987
:102AA000A0880022E978FEF755FD6846FFF74CFB49
:102AB0000CE0207B012809D1A07A012806D12089C9
:102AC0002449884202D1A08800F058FFA878FEF778
:102AD00023FD002819D008A8FEF752FC142208A9EB
:102AE00003A8FDF759FB002403AE0BE06000871933
:102AF000B888A978FEF71CFD002802D0B88800F03D
:102B000001FF641C0398A042F0D86878FEF704FD2A
:102B1000002819D008A8FEF733FC142208A903A83E
:102B2000FDF73AFB002403AE0BE060008719B8887C
:102B30006978FEF7FDFC002802D0B88800F01EFF7F
:102B4000641C0398A042F0D803F05EF90DB0F0BD0C
:102B500078000020022900003EB5044640886946FE
:102B600048802078002814D001281DD002280FD1D9
:102B7000207900280CD0608800F09CFA0E49884229
:102B800006D00E490122C978FEF7E4FC03F03CF9B7
:102B90003EBD002008700846FFF7D6FA608800F0B6
:102BA00089FA00F0AFFE3EBD012168460170A188A0
:102BB0008180FFF7C9FA3EBDFFFF000078000020CA
:102BC00010B50446007801280DD1608800F09AFE07
:102BD000608800F07DF9002805D003496088012253
:102BE000C978FEF7B7FC10BD7800002010B5104C76
:102BF00000202070FEF778FC6070FEF775FCA07076
:102C0000FEF772FCE070FEF76FFC20716178182906
:102C10000BD0A178182908D0E178182905D01828F8
:102C200003D001202070002010BD032010BD000043
:102C300078000020F0B585B000F09EF86846FEF7F9
:102C40009FFB00246D460C4F0EE060004619B088D3
:102C500000F0FCFAB84205D10849B0880122C978D1
:102C6000FEF778FC641CA4B20098A042EDD803F0F3
:102C7000CBF805B0F0BD0000FFFF00007800002099
:102C800010B50178072902D1408800F077FE10BD09
:102C900010B504460A4841782046FEF749FC002852
:102CA0000CD0084800210C224A4312185288A24234
:102CB00001D1C8B210BD491C0829F4D3FF2010BDB2
:102CC000900000201405002070B5094D094E002425
:102CD0000C206043401940887178FEF729FC0028D9
:102CE00004D0641C082CF3D3FF2070BDE0B270BD8B
:102CF0001405002090000020F8B50746104E01256D
:102D0000BD403068FDF720FF00280DD10D4C206933
:102D1000284207D1384601F075F90028E06804D050
:102D2000284303E0A8432061F8BDA843E060206980
:102D3000002228432061A1683068FDF7C1FEF8BD7C
:102D4000EC6E0000DC0000201CB5054A9168D268DA
:102D5000019200910022694601F01CFD1CBD00009B
:102D60006C6E000003480021C9438180012101707D
:102D7000002070478400002010B5044801F03EFC9C
:102D80000349888003F06CF810BD0000FFFF0000CD
:102D900084000020F1B582B0029800F057FA0024B8
:102DA0001649032501272646884209D06A4608218C
:102DB00001F0C6FC002803D1019886880568841DAF
:102DC0002B46324621460298A9DF042804D0082861
:102DD00004D00B2807D002E0112000E00020002FD3
:102DE00000D10B20FEBD0027A80701D50125E7E78C
:102DF0003443F6D0002426460325E1E7FFFF000018
:102E0000F1B582B0029800F021FA07461B488742CC
:102E100001D11B48FEBD01252A466D1C0026ADB21E
:102E20006B460821384601F0BBFC040002D0072C99
:102E300021D021E0019903230B600A1D891D02980E
:102E4000AADF040004D00C2C08D0052C08D008E020
:102E50000821384601F03EFD04460DE0012600E061
:102E600000240821384601F01FFD002800D003246B
:102E7000002ED1D100E00C242046FEBDFFFF000053
:102E8000023000001FB504460078012813D12079D4
:102E9000012810D1608802AA012101F051FC00280C
:102EA00009D10221684601706188418001210171C8
:102EB00005490968884704480449083880888842D9
:102EC00001D002F0CDFF1FBD8C000020FFFF0000ED
:102ED0001CB500F0BBF96A46012101F031FC002865
:102EE00001D000201CBD019800781CBDF8B5074E2C
:102EF000074C084D0746324661883846A7DFA8428E
:102F000003D16088401C6080F5E7F8BDFFFF00003A
:102F100084000020033000008188054A914204D0DB
:102F20000088002801D00120704700207047000071
:102F3000FFFF000008B508786A46107048785070A6
:102F40000121124AFF281ED000281CD0D1607D210B
:102F5000C9004843C117420CC903FF231143C003F2
:102F6000F5330022C01851415A000023FDF7E4F860
:102F70000146074800224068FDF7A2FD002801D065
:102F8000FDF742FD08BD916008BD0000000500503E
:102F9000346E000001490120886070470005005030
:102FA0003EB5044600780D46022815D10322611C67
:102FB0006846FDF7F1F80322211D02A8FDF7ECF8A1
:102FC00001AA02A92846FDF755FC032201A968467B
:102FD000FDF706F9002801D000203EBD01203EBDCE
:102FE00010B50C46FFF754FEFF280AD00C214843C9
:102FF0000549072241182046091DFDF7CDF800209C
:1030000010BD052010BD00001405002070B501881A
:1030100090B0102949D1011D2C2202A8FDF7BCF85F
:103020006846234E007B344602AD03282AD001F0C7
:1030300059FD6846007B00280ED001280CD00228DC
:1030400020D118E00E99281D1131FDF7E5FA00286E
:1030500002D06846048815E00DAA6946072001F0F1
:1030600017FD0028EED10DE00E99281D491CFFF731
:1030700097FF0028EDD10DAA6946072001F008FD51
:103080000028F1D168460089291D00F037FEB442BE
:103090000BD068460089214600F086F86846018911
:1030A000418001210170FFF755F810B070BD00009C
:1030B000FFFF0000084A00210C234B43D35A8342F0
:1030C00004D10C204143881840887047491C0829C6
:1030D000F2D302487047000014050020FFFF0000F3
:1030E00010B50E4C182060700D4A0E4900200C23BC
:1030F00043435B18401C5A800828F8D3FEF7F4F9C4
:103100006070182804D00548C01C71DF002801D069
:10311000032010BD01202070002010BD9000002071
:10312000FFFF00001405002070B504460D46401C4A
:1031300000F090F9002810D01022691C601CFDF7E7
:103140004FF800280AD000262946204611311130B8
:10315000FDF762FA01463046084370BD0126F3E7E9
:103160000188002903D142189278002A01D0012059
:103170007047491C0829F6D30020704710B50C464B
:103180000346FFF7EDFF00280BD0188821888842FE
:1031900006D10822A11C981CFDF722F8002801D0B6
:1031A000002010BD012010BD10B501F057FE10BD6C
:1031B00010B50446007888B0002826D12079072869
:1031C00023D1608801AA072101F0BAFA00281CD196
:1031D00001F088FC1BE0694660880988884216D0A7
:1031E00004990298FFF7A0FF002810D06088FFF72D
:1031F00061FF01466846C182002101756188018333
:103200000188418305A8FEF7A5FF08B010BD03AAF9
:103210006946072001F03CFC0028DCD1F5E70000FE
:1032200070B50446FFF746FF0546204601F08DFACB
:10323000054904468D4204D0002C02D1284601F0F5
:103240000DFE204670BD0000FFFF000010B5FFF727
:103250001FFDFF2804D00C2148430249085A10BD25
:10326000014810BD14050020FFFF00003EB50446D4
:1032700001F038FC10E0019920464631FFF77EFF4F
:10328000002806D1019920462A31FFF777FF002850
:1032900002D0684600893EBD6A4602A9072001F0B7
:1032A000F7FB0028E7D101483EBD0000FFFF00000A
:1032B000F8B50F46002804D00120FFF77FF9012060
:1032C000F8BD397900290AD00026254D01290BD0F7
:1032D000244C022920681FD003293BD125E001F0AE
:1032E00077F80121397133E000200101695C02297E
:1032F0000BD0401C80B20228F7D30220FFF778F9E8
:103300000120FFF75BF91848F8BD04016019406817
:1033100001F050F82E551BE001460023012213480E
:10332000FFF79CF90221A18011E001F043F80C495C
:103330002368203149880A01094951184D682560E0
:103340004B60A3880B810221A18005498E543E71F8
:103350000028D9D00120FFF731F90E20F8BD000078
:10336000C40A00202C0100201D1D00005001002077
:10337000F8B51E4C2078002836D0E06800260028DA
:103380000CD00025607800282ED1684652DF052831
:1033900006D0002806D0FDF737FB0BE00125F1E74A
:1033A000012607E0009800F057FD2169002901D0AF
:1033B00000988847002D13D16078002814D16088C8
:1033C00069460880A06861DF052804D0002804D081
:1033D000FDF71AFB04E0012502E0E168A0688847D8
:1033E000002ECFD0002DE5D0F8BD00003801002020
:1033F000418805480288914204D34088814201D81F
:103400000120704700207047680000201048018CA0
:10341000C9B2012917D1818C090714D1018D090680
:103420000A0F03D1828D1206120F0ED0090F012947
:1034300003D1828D1206120F07D0032903D1808D8C
:103440000006000F01D000207047012070470000E7
:10345000C00F00F00021425C002A01D0012070471B
:10346000491C1029F7D300207047800701D00020A5
:10347000704701207047000010B50448017BC90760
:1034800002D00078FEF720FB10BD000010000020E5
:10349000FFB5244D81B0287A1F460E46084304D05C
:1034A000039A002E04D0002104E0052005B0F0BDF1
:1034B0001C491031019802F06DFF044601460022BC
:1034C0000198FFF79DF8002F03D021460198FEF7E1
:1034D00021FE112C0FD006DC002C0AD0082C08D0BD
:1034E0000D2C05D105E0862C11D00F48C44200D028
:1034F00003242046DAE73246E9780198FEF72AF8F5
:10350000A978039A0198FEF725F80024F1E73246DE
:10351000E9780198FEF71EF8A978039A0198FEF75A
:1035200019F8E6E7C4000020FECFFFFFFEB51746FE
:103530000C00064604D02078C00704D0012003E028
:1035400000217EDFFEBD0220694608713046FFF78C
:103550007DFE17490546884208D001A800902B46F9
:103560003A462146304600F025F806E0207821460C
:10357000C007304603D000F081F804460BE07EDF40
:10358000044600200090002C08D000220123294688
:10359000304602F0ABFB002C02D006E00122F5E73A
:1035A00068460179304602F0C7FB2046FEBD0000A8
:1035B000FFFF0000FFB585B000252E4601AA0721B8
:1035C0000E9F089801F0BCF8040008D1029D442029
:1035D000405D1835C607F60F01D0029D34350798B7
:1035E000204312D1002D10D0002E05D128461230D4
:1035F000FFF7B6FD002808D029462A461231059863
:1036000085DF04460020387023E0002C01D0052C13
:103610001FD106980078C0070DD003AB0122072107
:10362000089801F0BDF804000AD10721089801F0BC
:10363000B5F9040004D1069905987EDF040008D08E
:103640000721089801F030F9002802D0052800D0A1
:103650000324002000903878002801D0012300E0E6
:103660000023002C07D000220899059802F03EFBA9
:10367000204609B0F0BD0122F6E70000FEB50F4676
:10368000064601F059F805461848854220D001AB9E
:1036900001220721284601F083F804000AD10721FE
:1036A000284601F07BF9040004D1394630467EDF1C
:1036B000040008D00721284601F0F6F8002802D0BF
:1036C000052800D0032401200090002C0BD002E03C
:1036D000032400200090002201232946304602F0F6
:1036E00005FB2046FEBD0122F6E70000FFFF0000BB
:1036F000F7B5114D0F46164629780098FDF718FFCB
:10370000002812D00098FFF7A1FD04460B48844220
:103710000BD069780098FDF70BFF002806D03346E0
:103720003A462146009800F0DDFEFEBD324639469D
:103730000098FEF791FCFEBDC0000020FFFF0000D6
:10374000F1B586B00698FDF7E7FE002821D068465F
:10375000FDF716FE00246E4618E060008519A88863
:103760000699FDF7E5FE00280FD00B4FA888B97821
:10377000FDF7DEFE0590A888F978FDF7D9FE014631
:10378000A8880123059AFFF783FE641C0098A042D5
:10379000E3D807B0F0BD0000C4000020F0B5284C0D
:1037A0002146103948688B68227886469C46CF7837
:1037B000667836E0182353436168521CC918A37811
:1037C000D2B2934200D100220B78022B02D0032BFD
:1037D00027D123E003464D68194603E0A94204D0EF
:1037E0000B46C96900291CD0F8E7002919D08B4283
:1037F00008D1C069002805D1124F0125BD60002500
:10380000AC4601270D68C969D961002909D00B6848
:103810005B190B6005E00174C06900E0002100281D
:10382000F9D19642C6D10649624610398A6048608D
:10383000CF70704501D00120F0BD0020F0BD000028
:103840000001002000100140F8B52C4E04467068BD
:103850000025009041E0002C02D02046E46920E0E1
:10386000264818231030017842684B43491CC9B2DE
:10387000D21801708378994200D105701178506890
:1038800001292CD1017C002929D191684160D1689E
:1038900081601169C16051698161F178002900D0AE
:1038A00045604368B268164F991A0902090AB9427D
:1038B00002D28268891806E0D11A09028268090AD0
:1038C0008A4202D9511A016000E005604560012179
:1038D00085600174C56102F015FF002CBBD107485B
:1038E0001030017840788142BAD1716800988142E5
:1038F00001D00120F8BD0020F8BD0000F00000203C
:10390000FFFF7F00FEB504461948002684422DD0F3
:103910002046FFF73FFA050012D00B2D14D0112DD1
:1039200010D01448C5421BD00921684601702046BA
:10393000FFF78CFC014668464180848002950DE0CB
:10394000022102E001260BE00321684601702046B7
:10395000FFF77CFC0146684641808480FEF7F4FB5B
:103960000548324681782046FDF7F4FDFEBD000093
:10397000FFFF0000FECFFFFF78000020FEB50446E9
:103980000026FFF73DFA0546112818D004DC002D6B
:1039900013D00C2D05D114E0862D25D01348C54237
:1039A0001BD00921684601702046FFF74FFC0146F5
:1039B00068464180848002950DE0012102E00126E5
:1039C0000BE007216846017084802046FFF73EFC2B
:1039D000014668464180FEF7B7FB0548324641780C
:1039E0002046FDF7B7FDFEBD0821EBE7FECFFFFF48
:1039F00078000020F8B5054600780C4600262042E5
:103A00000FD10020694608706846FDF7B1F82878A4
:103A1000204202D120432870012668460078FDF735
:103A2000C5F83046F8BD0000002398B0614A052172
:103A30001846FDF70BF8002801D0FCF7E5FF5E4AB9
:103A400001215E48FCF7ECFF002801D0FCF7DCFF09
:103A50005A485B4A0021001DFCF7E2FF002801D014
:103A6000FCF7D2FF03265748022700250660564878
:103A700001248460554A56493046FDF7D9FF002895
:103A800001D0FCF7C1FF69460020FDF7C3FE002806
:103A900001D0FCF7B9FF6846007802287DD00021EC
:103AA00068460171FDF7FCFD6846007901F0EAF90E
:103AB000012001461031684601730D2245A103A87B
:103AC0007CDF002801D0FCF79FFF0095502168465D
:103AD00001950180A0214180FF2185809131C18025
:103AE0007ADF002801D0FCF78FFF3C2101A8FCF70A
:103AF0006CFB6846077184710621C1718482394864
:103B00000690202110A8FCF760FB10A8C470FF20CD
:103B10002D301490B4201590334B10AA002100953D
:103B200001A8FDF799F9002801D0FCF76DFF02F01C
:103B30004DFA20485121E8300160642184604160E1
:103B4000047301462748801D02F044F91C21684691
:103B5000FCF73BFB0520C00301900F2000040290FE
:103B6000009568460673C581057420480590204875
:103B700006906846FDF792FB002801D0FCF744FF51
:103B80000E480121002209040068FCF799FF002873
:103B900001D0FCF739FF032000E002E0FDF76CFAEA
:103BA00002E001217CE748DF0028FCD0FCF72CFF75
:103BB000F9E70000A0010020B10D0000346E000004
:103BC000952F0000000700500005005089190000E3
:103BD000CD0C0000466F756E64696E67204B657989
:103BE0007300000002000020974100005D420000C9
:103BF000A51E000070B5144682880E460546208832
:103C0000111D4118921C994201D8FE2A01D90C209D
:103C100070BD521C32542088FF21401C80B220808D
:103C200031542088401C80B220808119288802F0FD
:103C30009CFE2188401880B22080AA88002A09D0E2
:103C4000A968002908D08019FCF7A6FA2088A9885D
:103C500040182080002070BD072070BDF8B50F46C9
:103C6000017814460546012902D16878002806D05B
:103C70002088821C9A422DD8012902D006E0072014
:103C8000F8BD69784118891C994223D8181A801EFA
:103C900086B2684606802188B81C081869467DDF10
:103CA0000028EDD12878022805D169460988B1425B
:103CB00001D809210AE00821012805D16878B0421D
:103CC00002D86A46108001E068460680684600888F
:103CD000FE2801D90C20F8BD2288401CB854208849
:103CE000401C80B22080395420886946401C2080C6
:103CF0000988401820800020F8BD0000F8B5FF2496
:103D00000F46054600291FD0104EB5421CD0104862
:103D1000012241782846FDF71DFC2846FEF7B8FF32
:103D20000446FF2804D1FEF7CFFF0446FF280BD03E
:103D30000C21484307490246401845808E5207220D
:103D40003946001DFCF728FA2046F8BDFFFF0000A9
:103D5000900000201405002070B50B4D0E46A842BF
:103D600001D1002000E0401C84B209E02146304629
:103D700001F062FA002801D0204670BD641CA4B294
:103D8000FF2CF3D9284670BDFFFF0000C20843078F
:103D90005B0F0120895C984008407047012189072A
:103DA00040180068002800D00120704700280FD07C
:103DB0000849094A096800BF00BF00BF00BF00BF33
:103DC00000BF00BF00BF914200D000BF401EF2D133
:103DD000704700004C0100200024F40070B50E4C28
:103DE00000252078002801D0852513E00021A1605E
:103DF00061602161E160094800680126304002D11C
:103E0000032100F02FF802F01BFC002801D1044828
:103E100086612670284670BD4009002000E100E060
:103E20000005004038B50020694608706846FCF778
:103E30009FFE084C2078002801D1FFF7CFFFE068F3
:103E4000401CE0600120A07068460078FCF7AEFEE0
:103E500038BD00004009002010B5002801D1FDF751
:103E600075FF10BD8207D30EFF229A408907090E05
:103E700010B5994000280BDA03071B0F083B9C087C
:103E80000C4BA400E318DC6994430C43DC6107E0AD
:103E90008408094BA400E418236893430B43236070
:103EA000C106C90E01208840044908600449086021
:103EB00010BD000000ED00E000E400E080E200E062
:103EC00000E100E0F3B581B0054601F017F81F4F9F
:103ED0000028284617D0FDF7F7FEC0192030007FD4
:103EE0008009032802D001280BD005E0184800699A
:103EF000E840C007C00F04D00321284600F0FBF8BB
:103F0000FEBD0221F9E701F005F80028F8D02846A7
:103F1000FDF7DAFE04468000C11D0E4AF931801813
:103F2000026989B2012632430261084600F014F9A1
:103F300002980028E4D02846FDF7C6FE80003858D5
:103F40000028DDD00448A6404660FEBD540900208C
:103F5000000500500065004000630040FEB50446C7
:103F600025480E460019202141560027C817134640
:103F7000401C01D008273CE0F27819462046FDF7A6
:103F80007FFE0546401C33D0B07800280BD00520BA
:103F90000007A1000918072000020918086802227A
:103FA0009043086007E000217378204600910A469C
:103FB000019100F07BF8F078002810D00F48AA009B
:103FC0001018317802690E4B1A400261E206D20CD9
:103FD0008907890B0A4301690A43026109E006481F
:103FE000327840192030017F92011143017700E0BF
:103FF00004273846FEBD000054090020006500403B
:10400000FFE0FCFF03490969C140C807C00F00D0A9
:10401000012070470005005070B5144D2879002824
:1040200001D0082070BD114900204039421E0B18F4
:104030002033401CC0B21A702028F8D30024204638
:10404000FDF710FE641CE4B2082CF8D3032106200F
:10405000FFF708FFFF207D3000F07EF801200449C3
:10406000C007486001202871002070BD940900201D
:104070000063004002480079002800D0012070470A
:104080009409002070B552000A439900049D0A4328
:104090002902059E0A43310405240A4324078000AF
:1040A0000721001909024018026070BD70B5520066
:1040B0000A439900049D0A432902059E0A433104DC
:1040C00005240A432407800007210019090240182B
:1040D000026070BD052212078000821807200002CE
:1040E0001018026803231B049A4302600268090443
:1040F0000A430260704705221207800082180720D9
:1041000000021018026803231B049A43026002682D
:1041100009040A43026070470122824003480029D3
:1041200001D082607047C2607047000000050050F7
:1041300038B5084B05241B68009324026B464118D0
:1041400005E085005D592D192D69401C20C2814272
:10415000F7D838BDE86E0000024940180021016020
:1041600070470000006000400349401800680128C3
:1041700000D0002070470000006000404058002838
:1041800000D00120704703221202801840680840C6
:1041900000D00120704710B5002809D0032806D1AF
:1041A0000220FDF737FC002801D0FCF72DFC10BDE4
:1041B00001F09CFF10BD000010B50446008888B0D7
:1041C0003A2821D009DC022824D0102811D0112847
:1041D0000DD10020FDF71EFC19E051281ED05528F6
:1041E00005D1A088132176DF11E0FCF70DFC08B0A3
:1041F00010BD0720FDF70EFC002801D0FCF704FCE1
:104200001549A0880880F2E7A088132176DF0028EE
:10421000EBD1ECE7A088002167DFF8E71022A11DB1
:1042200004A8FBF7B9FF6846017C0029DFD0007EB7
:10423000042803D0062801D00528D8D1022908D0A7
:10424000012069460870FF2083308880A088A8DF9D
:10425000DDE70220F5E700000000002010B500783F
:10426000002807D104483B21008876DF002801D0D0
:10427000FCF7CAFB10BD00000000002010B5134A77
:1042800000215170017A012911D002290ED18189B2
:10429000491C8181C189491C89B2C181028A91422C
:1042A00004D1002101F056FD01F092F910BD838A7E
:1042B000C28A991AFF2901DC89B201E0FF2101318C
:1042C000511889B2C1829942EBD010BD340100204F
:1042D000F7B51C4D0E4601466A6F002082B0032AD6
:1042E0002DD82C4678340827636CBF1BBB4226D8D8
:1042F000286F10188007800F1C2250434019FBF7CD
:104300004BFF686F401C6867002E17D0216C606CF3
:1043100040184007800E00190023009009E004981F
:10432000D9000A1806CA009806C06846FDF7E4FCE2
:104330005B1CB342F3D3606C80196064012005B04C
:10434000F0BD0000040A00200389CA1C9A180281EB
:104350004289511AC91E418170470000F7B50D46C8
:1043600001218902471804460026083402202880CB
:1043700012E02046FEF7D0FD002817D00C48A168B7
:104380004268914200D94160608881000C192988F7
:104390000818C01C28800C34BC4202D22068401C83
:1043A000E7D10298002800D00670FEBD0126EBE799
:1043B0001C01002008B50021009101460223024A99
:1043C0000248FEF7F1F908BD006F0000500100201F
:1043D00008B500200090044802230168034A0448FD
:1043E000FEF7E2F908BD00002C010020F86E000085
:1043F00050010020F8B50025354F2C462E4600957B
:104400003448B102006840180168B94205D1324A07
:104410004168891830D001290CD000218A008258C7
:104420000346521C36D003202C4922018854641CB8
:10443000A4B21BE0009900290CD0284B02222101D4
:104440005A54274A1368254A891802224B60641C73
:104450000A81A4B2224900220860091DFFF77EFFED
:104460001F488088022831D008200543761CB6B248
:10447000032EC5D3E8B2F8BD1849002322018B549E
:1044800051180A4648600E320831FFF767FF0220D4
:104490000543CCE7491CFF29C0D911490A68002A05
:1044A0000CD00E4A02212301D1549A1850600B48B7
:1044B000118120304480641CA4B204E002200B600F
:1044C00088800120009001200543CFE70420CCE73D
:1044D000DEC0ADDE5001002002FEE10EC40A002065
:1044E0002C01002070B5184D0E46044623CD86B031
:1044F0000295009001916846448082808371134D3B
:104500002046A978FDF714F8002803D03046FEF7BE
:1045100087FE0FE00721304600F0C6F9002809D0D9
:10452000052807D1092269460A73CC81049003A8A3
:10453000FDF732FE002229782046FDF70BF8684689
:10454000FDF72AFE06B070BDCC6E0000C000002052
:10455000F0B585B00746FCF7DFFF002814D06846A9
:10456000FCF70EFF00246D460BE060004619B08892
:104570003946FCF7DDFF002802D0B08801F0AAFF21
:10458000641C0098A042F0D805B0F0BD70B5054D90
:1045900006460024A000295830468847641C052C94
:1045A000F8D370BD8C6E00003EB50F4D0024142072
:1045B0006043401902F0E6FA641C082CF7D3082186
:1045C000502001910A490124C2000290074B009437
:1045D000881800F0DAFC002801D003203EBD034813
:1045E000447000203EBD000014080020A8000020F8
:1045F0008405002010B500F043FA10BD10B500F09E
:1046000043FA10BDF0B5002585B0009501950295DF
:1046100003950446418868464180217901712E4600
:104620002179608802F088FA22780421404F130033
:10463000FBF7C8FF0A0606361C1C383E43484B4DA4
:1046400000280DD0417CC9070AD002F0ADFA6846B7
:1046500006702078012800D00020694608722AE000
:10466000012069460870A068029024E000280ED05E
:104670008268A3689A420AD1427CD30707D07B683C
:1046800052085B1C52000A437B6042741FE0022008
:1046900069460870E06803900DE0FFF777FF16E0C9
:1046A000032006E068460170E06802906846F4E77F
:1046B0000520694608700846EFE70620694608703D
:1046C000E068D1E701250720F3E7E0680290786809
:1046D000002824D0174E0024142027464743B81939
:1046E000417C4A0703D48907C90F29421CD081782D
:1046F000F05B00F0EFF8002816D014214C43325B39
:1047000069464A80B9198A7869460A71862808D0AC
:1047100009216A46117002906846FFF737FF05B01D
:10472000F0BD08200870F7E7641C082CD4D3F6E726
:10473000A80000201408002010B500F069FA10BD90
:1047400010B5002300F0D6F910BD38B50546002499
:1047500020460AE08178284600F0A6F8002802D01A
:10476000052800D003240098401C00906946284684
:1047700002F0F4F90028EDD1002C07D1284600F012
:104780004FFA002802D0072802D00324204638BD63
:104790000724FBE710B51346002200F0E3F910BD33
:1047A000FFB581B0049815460E46002804D0072EA8
:1047B00005D0082E19D102E00E2005B0F0BD002D65
:1047C00013D0082D11D8019800F035FA00280CD02C
:1047D000002000903146019802F0AEF9041E26D068
:1047E000E068A84212D2002709E00720E5E7207C14
:1047F000C019C1B22A4800F000FC7F1CFFB2E0687B
:10480000B842F4D8204602F0BDF910E0A84217D90A
:10481000EFB207E0207CC019C1B2214800F0EDFBE7
:104820007F1CFFB2E068B842F4D8002C08D1FF2109
:104830001C48019F02F080F9041E05D00780A67075
:10484000207CFF2802D00AE01120B6E72946144850
:1048500000F06CFB2074FF2813D001200090E5606D
:10486000217C0F4800F0B2FB02000ED0ABB2314603
:10487000049800F071FA009800280FD0082E06D096
:104880000CE0204602F07EF9DEE7032095E704986D
:104890000499008849688000801F888000208CE788
:1048A00004080020FFFF000070B5002402F044F966
:1048B00005000CD06868002804D000F0D8F9040086
:1048C00000D00324284602F06FF9204670BD052071
:1048D00070BD00007CB50D460646072903D0082DA3
:1048E00001D007207CBD00200090019068468570B3
:1048F0002946304602F020F9040004D0607CC0074D
:1049000003D000207CBD05207CBD217C214800F027
:104910005DFB020025D029466846E36800F0AFF948
:10492000684602F0F7F82346083369463046626865
:1049300000F018F90246607C1749430704D5830745
:1049400002D54B685B1E4B60FB25FD23002A0AD075
:10495000112A0DD0862A14D0072A00D0032210462F
:104960007CBD03207CBD01210843284018400EE097
:104970004A68521C4A6004210843184060740022AF
:10498000EDE74B6828405B1C4B60022108436074D4
:10499000E5E7000004080020A80000207CB50D46D3
:1049A000072903D0082D01D007207CBD002602F086
:1049B000C3F8040003D06068002802D01BE0052083
:1049C0007CBD217C0E4800F001FB024600200090D7
:1049D000019068468570002A0FD02946E36800F0F0
:1049E0004EF9684602F096F8211D684600F027F956
:1049F0000646092801D030467CBD03207CBD00005E
:104A0000040800200149096808470000886E00007A
:104A100070B588B01748FDF76FFD002802D003205D
:104A200008B070BDFDF7A4FC002801D08620F7E790
:104A300000F0E8F90020104C0290E61F03900DE012
:104A4000694604A8FDF71CFD00988088801B85B28C
:104A500004A8FDF7D3FC284600F088F902AA04A9AF
:104A60002046FDF7F2FC0028EAD004490120087036
:104A70000020D5E7C121000007C000009C000020F5
:104A800010B500F09DF910BD10B500F0A1F910BDF2
:104A900070B505460320800386B014460E462818DC
:104AA00080B20F4A6946FDF7D0FC002805D103A962
:104AB0006846FDF7E5FC002802D0002006B070BD76
:104AC000A5700398408820800498606003988088CF
:104AD000FDF762FD30806846FDF790FC0120EDE7B0
:104AE000A000002002480021416081607047000062
:104AF0009C000020F0B587B01D46144607460E46C0
:104B0000FF280CD8084600F017F9002807D003AAA0
:104B10003146384600F0F8F8002809D102E00720B5
:104B200007B0F0BD01A903A8FDF7AAFC002801D039
:104B30000520F5E7A6700198002D408820800AD056
:104B400082002868904204D802996068FBF724FB31
:104B500003E00420E4E70298606003A8FDF74EFC40
:104B60000020DDE77FB588B01D460C460646FF28CD
:104B700031D8A07800F0E0F800282CD060680690CA
:104B8000208869468883304600F076F969460880B7
:104B9000A0780321890340186946488006A801903F
:104BA00001200881A17803AA304600F0ADF805285D
:104BB00013D00AA8FDF7CCFC694603A8FDF782FCD8
:104BC000002818D0072820D008281CD00E281AD07A
:104BD00003200CB070BD0720FBE70A98002805D021
:104BE0000AAA694603A8FDF77DFCE9E7694603A820
:104BF000FDF772FCE4E7002D03D0294603A8FDF77A
:104C000034FC0020E5E71120E3E78620E1E700001F
:104C100010B5024800F0AAF810BD0000FFFF000028
:104C200010B5FF2801D9072010BD00F0A7F800F04B
:104C30002BF8002010BD10B500F0F8F810BD70B5CD
:104C400004460D46807800F077F800280BD02188C4
:104C50002846FDF763FC002804D0072805D0092862
:104C600000D0032070BD072070BD862070BD01B547
:104C70006846FDF76DFC002800D0032008BD10B584
:104C80009BB200F069F810BDF0B589B000261C4F4A
:104C900004963846059603E0204600F083F8204647
:104CA00000F08EF80446B84207D000F0E5F804AAF8
:104CB00006A9FDF7D2FB0A28EED0124DA8780028ED
:104CC00019D1BC4217D00320800301272018AF70F0
:104CD00080B2FDF703FB08280FD000280BD0AE7080
:104CE000092269460A704C80FF220A7103900296DD
:104CF0006846FFF787FE09B0F0BD6F70FBE7000064
:104D0000FFFF00009C0000207CB5054616460C46BF
:104D1000084600F011F8002003210090890301905B
:104D20006818611880B289B26B463246FDF786FB7F
:104D3000002800D005207CBD07280BD0012809D011
:104D4000082807D0052805D0062803D0042801D05C
:104D5000002070470120704710B5502463439BB278
:104D60008170DB1C99084260018010BD10B50249BA
:104D7000FCF7CEFF10BD0000B408002010B50446BB
:104D80000648844207D006492046FCF7C1FFA042EE
:104D900001D1012010BD002010BD0000FFFF000068
:104DA000D408002010B50446044900F0FFFD034973
:104DB0002046203100F0FAFD10BD0000B4080020AC
:104DC00010B50249FEF7C8FF10BD0000D40800204E
:104DD00070B50A49FEF7C0FF0446094D08E000F02F
:104DE00031F8002807D005492046FEF7B5FF0446F4
:104DF000AC42F4D170BD204670BD0000B408002064
:104E0000FFFF000010B508484021FBF7DEF9FF2442
:104E100001342146044800F0DFF9034821462030E0
:104E200000F0DAF910BD0000B408002010B5FF282A
:104E300004D80146024800F0FFF910BD002010BD63
:104E4000B408002010B5FF2804D80146024800F03D
:104E5000F3F910BD002010BDD408002010B50C4699
:104E6000FDF716FFFF2803D00C21484301490C52DF
:104E700010BD00001405002003218903401880B2F2
:104E8000704700001CB5044600F064F9002801D00A
:104E9000FBF7BAFD002C05D000F0B2FA002801D0D3
:104EA000FBF7B2FD002000900190684600780122D7
:104EB00010438121084030304106490E6846017098
:104EC0000721417010218170C178022311431943D9
:104ED000C170017911431943017100F0C7FA00282C
:104EE00001D0FBF791FD044800F0A8FA002801D09A
:104EF000FBF78AFD1CBD00002D5000000449081876
:104F000020214156042901DB012070470020704711
:104F1000540900200449081820214156042901D2CF
:104F2000012070470020704754090020F8B50F4653
:104F3000060028D03068002825D07068002822D0CC
:104F4000FF2400251CE02946706800F04DF9002878
:104F500008D0FF2C00D12C46281B401CB8420DD194
:104F60002046F8BDFF2C06D108E02146304600F06F
:104F700044F8641CE4B2AC42F7D3FF246D1CEDB2DC
:104F8000B068A842DFD8FF20F8BDF8B50400069E3F
:104F9000089D079818D0002916D0002B14D007467A
:104FA0006F43974210D8C21DD208B2420CD80028D5
:104FB0000AD0002D08D0E560A0600AC481B218466E
:104FC00000F00AF90020F8BD0720F8BD70B5040014
:104FD0000D4610D0206800280DD0606800280AD047
:104FE000FF2D08D000F028F9002804D0E0682168DF
:104FF0006843081870BD002070BD70B504000D46F0
:105000000FD0206800280CD06068002809D0FF2D40
:1050100007D000F011F9002803D02946606800F09D
:1050200017F970BD10B501F07FF810BD08B5017813
:105030000B00FBF7C7FA0F0F0F0F0F0910240F22F9
:105040000F241B240F1F0F00002100914088694688
:10505000FFF7E8FF08BDFDF767F90E28FAD008282A
:10506000F8D00028F6D0FBF7CFFC08BD0320FCF7F2
:1050700003F8F6E700F0A6F808BD0069F1E78068DC
:10508000EFE770B586B0044614216846FBF79DF83B
:10509000608869468880FEF70DF869464880267862
:1050A00000200822072105253300FBF78BFA0A06AA
:1050B000060B0D0F1416281A1D256B461970587211
:1050C0001A7219E00D2009E00E2007E06A461170FF
:1050D0005072157210E00F2000E010206946087031
:1050E0000AE06846057007E0062168460170A0687E
:1050F0000290A188684641806846FDF739F806B0FD
:1051000070BD000010B50446007886B000281AD0A3
:10511000012816D10E49608801224979FCF71AFA54
:1051200014216846FBF751F860886946488060881A
:10513000FEF78CF869468880002008706846FDF705
:1051400017F806B010BDE08800F04EF9F9E700004E
:10515000B000002070B5FFF75BFC00282ED1FFF7F0
:1051600023FA00282AD100F0EDFF002826D101F013
:10517000F3F8002822D1FDF739FD00281ED1FDF7F4
:10518000F1FD00281AD1FDF7ABFF002816D10C4C19
:10519000401EE08000251820A56020716071FCF79A
:1051A000A3F92071182809D0FCF79EF9607118281E
:1051B00004D0657001202070002070BD032070BDF8
:1051C000B000002010B503480078002801D0FDF79A
:1051D00031FD10BDB000002010B5002803D0C91D5E
:1051E000C908FAF7F2FF10BD10B5002809D04B0727
:1051F0005B0F01229A40C908D2B208181146FEF787
:10520000F9FB10BDF8B50D46060013D000240127A8
:105210000EE06107490F38468840C1B2E0088019A6
:10522000FEF7E8FB002801D02046F8BD641CA4B2BC
:10523000AC42EED32846F8BD002807D0CA08805CEF
:105240004A07520F01219140084000D001207047C9
:10525000F8B504464805050E4907490F0120884066
:10526000C6B2002C0ED0605D30420BD000216846E3
:105270000170FBF77DFC605DB043605568460078C7
:10528000FBF794FCF8BD000010B504460648007812
:10529000002808D02046FDF7B9FE204600F03AFF6E
:1052A0002046FDF7E1FB10BDB0000020F0B58BB04B
:1052B000044614216846FAF788FF608869468880AA
:1052C000FDF7F8FE6946488027780120082207216B
:1052D0000026434D3B00FBF775F90A060E20353BCF
:1052E000435F80787A806A46117021791172567214
:1052F000039690726EE06A461170217911725672AF
:10530000A16803919072A868002863D0A1688142C7
:1053100060D1AE609088E88012E068460270217922
:1053200001724672A0680390E0680490A8680028A3
:1053300050D0A16881424DD1AE60E868401EE8605F
:10534000039647E06A461170217911725072F7E7AF
:1053500069460A7022790A724872A068049039E09E
:10536000092069460870A878002833D01D4C2046D3
:10537000FFF744F9A0422DD12046FFF73BF9A042A8
:1053800028D1AE70142105A8FAF71FFF0B2168463B
:1053900001750483C48214E00A2069460870A0687D
:1053A0000290A878002815D0AE70142105A8FAF74D
:1053B0000CFF0C20694608750A480883C882A0685B
:1053C000079005A8FCF7D4FE04E0052000E00620C5
:1053D000694608706846FCF7CBFE0BB0F0BD0000D4
:1053E000B0000020FFFF000010B504490978002933
:1053F00002D0FDF715FF10BD082010BDB000002041
:1054000070B50C480178002904D001210A4D817043
:10541000284608E0082070BDFFF7E6FF002801D00D
:10542000032070BD2046FFF7E9F80446A842F3D1F7
:10543000002070BDB0000020FFFF000010B5094A39
:105440001178002904D0D178032903D3042010BD9A
:10545000082010BD8B00044C491CE050D170002086
:1054600010BD0000B0000020F408002010B5044971
:105470000978002902D000F0A7FE10BD082010BD59
:10548000B0000020F0B585B004460126142168461E
:10549000FAF79BFE6088694648804B4F20780025CC
:1054A00039797A790300FBF78DF80D828D081C306D
:1054B000424C5159646A6C7E820001206A46107029
:1054C0002079002801D0012200E00022012806D026
:1054D00000256088FCF73EF860882A4611E0012527
:1054E000F7E702206A4610702079002801D00120D9
:1054F00000E00220107260880122FCF72BF822796C
:1055000060887979FCF726F852E003206946087034
:1055100060881146FCF70CF8002801D0012100E05A
:10552000022168460172A1790173A18839E060887F
:10553000FBF7FEFF002845D10220694608700D7276
:1055400036E00321684601700572ECE707206946E2
:105550000870A2888A8008724D7230E0082168467F
:105560000170A1888180072101724572A0680490B2
:1055700025E00620694608706068029018E0052062
:1055800012E003206946087060881146FBF7D0FFDF
:10559000002801D0012100E00221684601720B4978
:1055A0000573418104E004206946087000E000268C
:1055B0006088FDF74BFE69468880002E02D0684661
:1055C000FCF7D6FD05B0F0BDB000002001110000D1
:1055D0000848416E491E416604D10749FD230A78F7
:1055E0001A400A70016E491C0166042901D100218C
:1055F00001667047F40A00203401002070B50C49A0
:105600000446486E042810D00A6E1218042A00D3EB
:10561000121F401C48661820424355180146284670
:10562000FAF7D3FD0120256070BD002070BD000099
:10563000F40A0020F0B52B4C1C22216F85B0514399
:105640000D192978284E00270B00FAF7BBFF071920
:105650000509090D0D1119002946FDF729FE09E07C
:10566000294601F041FB05E02946FCF753FC01E027
:10567000FDF710F900282FD0B04202D1019710E0B9
:105680000F2001902878022801D0032809D115485D
:10569000AA7D7830016C89180164AA7D416C891A51
:1056A000416469462846FCF7EFFC6846FCF722FD9A
:1056B000206F1C2148430019FAF787FD606F00280E
:1056C0000CD0216F491C8907890F2167401E606734
:1056D00004D00020FFF7AEFF05B0F0BD0420FCF7BA
:1056E0006DFFF9E7040A00201D1D000010B51848E1
:1056F0001822016E51430C18406E00281FD0207AEA
:10570000012802D0022816D10FE0A18AE08A091AE6
:10571000FF2901DC8AB201E0FF220132E16880004A
:1057200023690918181829DF01E0A08928DF11284A
:1057300006D0002803D00921204600F00BFB10BD45
:105740000449FD220878104004221043087010BD5F
:10575000F40A00203401002010B505480078400705
:1057600005D40420FCF744FF0020FFF763FF10BDC1
:105770001C01002010B5054801784A07920F04D19A
:10578000022211430170FFF7B1FF10BD3401002068
:10579000F8B507461D481C46007815460E4680079A
:1057A00001D40220F8BD002D01D0002C28D1052005
:1057B000F8BD01011648405C00281ED116E02068A3
:1057C000002F03D081883A8891420FD1002E03D058
:1057D00001883288914209D1806828602068686019
:1057E0000B482030008928810020F8BDA088214680
:1057F00000F060F80028E2D12060A088401CA08062
:10580000A0880228D5D30A20F8BD00001C01002082
:10581000C40A0020F8B505464068244F00260C460F
:10582000002828D022490A68824224D84968814247
:1058300021D3FDF71AFE00281DD028893989884216
:1058400019D103CD083D8A68904214D13A46002010
:10585000203A0125AD0203019B185B688B4204D2FC
:105860005B198B4201D9208011E0401C80B20228D4
:10587000F1D30020F8BD268000960AE00098296840
:105880008068884205D100986860388928810120A5
:10589000F8BD2088694600F00DF80028EED1208878
:1058A000401C80B220800228E6D3E2E7E40A002010
:1058B00050010020F8B50E460A681249000145184B
:1058C000002A04D05088800084180C3401E06C68F1
:1058D00008340127BF026868C019A0420FD92068A8
:1058E000401C0CD02046FDF717FB002802D00120F9
:1058F0003460F8BD6088800004190C34EBE70020A8
:10590000F8BD0000C40A002008B50021009101463E
:105910000123044A0448FCF747FF002800D00E206A
:1059200008BD0000F46E000050010020032189032F
:10593000401AC0B27047000003218903401A03498E
:10594000884201D80120704700207047FE3F0000C8
:1059500038B5044613480025436C002B08D0026C70
:10596000D500521C52072D18520F5B1E436402646F
:1059700000200090A08AAB88800041180A482A685D
:10598000FCF712FFA18AAA888918A182A17D491E6D
:105990000906090EA17501D101212174002800D04A
:1059A0000E2038BD7C0A00205001002010B50A46A8
:1059B000FF2803D801461046FFF74AFC10BD00003F
:1059C00070B501240B49600408600B4940108860E1
:1059D000094940398860094D6C602F20FEF7E6F9CF
:1059E000AC60074D00242F20AC60FEF7DFF9AC70EF
:1059F00070BD000080E100E0401301400010014054
:105A0000F000002030B5FF220523CD7D00240932AF
:105A10001B02C318002D8450986905D04B7ECA68BC
:105A2000D054487E401C487630BD1FB501246B46DB
:105A30001C701972019206C8684690471FBD00008D
:105A400010B50446FAF7DAFD00280CD0A007C00E06
:105A5000002C0ADA2107090F08398908144A89003D
:105A60008918C96906E0134810BDA108124A8900C7
:105A700089180968C1400806800F042811D200283F
:105A80000FD002280DD00D494B68E206D20E01203E
:105A90009040002B08D0620992008B5803438B5032
:105AA00004E00448401C10BD05490860002010BDFA
:105AB00000ED00E00120000000E400E014010020FF
:105AC00000E100E070B5049D002819D0002917D02E
:105AD000002A15D000246600865B9E4211D100206A
